:1000000015C400003BC4000039C4000037C4000020
:1000100035C4000033C4000031C400002FC4000008
:100020002DC400002BC400000C94B51E0C941F1F9F
:1000300025C4000023C4000021C400001FC4000028
:100040001DC400001BC4000019C4000017C4000038
:1000500015C4000013C4000011C400000C94141E49
:100060000DC400000BC4000009C4000007C4000058
:1000700005C4000003C4000001C40000FFC3000069
:10008000FDC30000FBC30000F9C30000F7C300007C
:100090000C94640FF3C30000F1C30000EFC3000031
:1000A000EDC30000EBC30000E9C3000064064C0789
:1000B00030072D081408490655064509F208B90B02
:1000C000DE0BF20B010C150C250C2E0C390C550C0B
:1000D00052657475726E20202020202000436861D4
:1000E0006E6E656C20333A20004368616E6E656CFD
:1000F00020323A20004368616E6E656C20313A20F0
:1001000000534554205343414C4520464143544FEE
:10011000520052657475726E20202020202000430A
:1001200068616E6E656C20333A20004368616E6EC4
:10013000656C20323A20004368616E6E656C203138
:100140003A200053455420474154452F54524947C3
:100150004745520052657475726E20202020202081
:100160002020202020004368616E6E656C20333AA9
:1001700020004368616E6E656C20323A200043684F
:10018000616E6E656C20313A2000534554204E4F0D
:100190005445205052494F52495459005363616CA1
:1001A0006520466163746F7220202020200020208B
:1001B0000043432020202020202020202020200039
:1001C00020200050697463682042656E64202020FE
:1001D0002000476174652F54726967202020202019
:1001E000004E6F7465205072696F726974792000D7
:1001F00053455454494E47530000000000003E5BF5
:100200004F5B3E3E6B4F6B3E1C3E7C3E1C183C7E63
:100210003C181C577D571C1C5E7F5E1C00183C1848
:1002200000FFE7C3E7FF0018241800FFE7DBE7FF44
:1002300030483A060E2629792926407F05050740D1
:100240007F05253F5A3CE73C5A7F3E1C1C08081C92
:100250001C3E7F14227F22145F5F005F5F06097FD0
:10026000017F006689956A606060606094A2FFA269
:100270009408047E040810207E201008082A1C0818
:10028000081C2A08081E101010100C1E0C1E0C3022
:10029000383E3830060E3E0E06000000000000001A
:1002A0005F00000007000700147F147F14242A7FDA
:1002B0002A122313086462364956205000080703A7
:1002C00000001C2241000041221C002A1C7F1C2A25
:1002D00008083E0808008070300008080808080078
:1002E0000060600020100804023E5149453E004273
:1002F0007F400072494949462141494D3318141243
:100300007F1027454545393C4A494931412111096A
:10031000073649494936464949291E00001400005C
:100320000040340000000814224114141414140076
:100330004122140802015909063E415D594E7C12C2
:1003400011127C7F494949363E414141227F41415A
:10035000413E7F494949417F090909013E414151D7
:10036000737F0808087F00417F41002040413F0122
:100370007F081422417F404040407F021C027F7F63
:100380000408107F3E4141413E7F090909063E4174
:1003900051215E7F09192946264949493203017FC7
:1003A00001033F4040403F1F2040201F3F40384056
:1003B0003F631408146303047804036159494D43EF
:1003C000007F4141410204081020004141417F0467
:1003D000020102044040404040000307080020544E
:1003E0005478407F284444383844444428384444AE
:1003F000287F385454541800087E090218A4A49C7D
:10040000787F0804047800447D40002040403D008F
:100410007F1028440000417F40007C047804787CF1
:10042000080404783844444438FC18242418182458
:100430002418FC7C08040408485454542404043F41
:1004400044243C4040207C1C2040201C3C40304048
:100450003C44281028444C9090907C4464544C4474
:100460000008364100000077000000413608000215
:10047000010204023C2623263C1EA1A161123A403F
:1004800040207A38545455592155557941225454B5
:100490007842215554784020545579400C1E5272B0
:1004A000123955555559395454545939555454588D
:1004B0000000457C410002457D420001457C407DB5
:1004C0001211127DF0282528F07C54554500205447
:1004D000547C547C0A097F4932494949323A4444A0
:1004E000443A324A4848303A4141217A3A4240201F
:1004F00078009DA0A07D3D4242423D3D4040403DB0
:100500003C24FF2424487E4943662B2FFC2F2BFFDD
:100510000929F620C0887E0903205454794100003F
:10052000447D413048484A32384040227A007A0AB5
:100530000A727D0D19317D2629292F28262929297E
:100540002630484D402038080808080808080838B0
:100550002F10C8ACBA2F102834FA00007B00000816
:10056000142A142222142A14085500550055AA559D
:10057000AA55AAFF55FF55FF000000FF00101010FC
:10058000FF00141414FF001010FF00FF1010F010F3
:10059000F0141414FC001414F700FF0000FF00FF17
:1005A0001414F404FC141417101F10101F101F143F
:1005B00014141F00101010F0000000001F10101085
:1005C000101F10101010F010000000FF101010107D
:1005D0001010101010FF10000000FF140000FF00AA
:1005E000FF00001F10170000FC04F414141710176C
:1005F0001414F404F40000FF00F714141414141479
:1006000014F700F7141414171410101F101F1414EB
:1006100014F4141010F010F000001F101F00000060
:100620001F14000000FC140000F010F01010FF1068
:10063000FF141414FF141010101F00000000F0101D
:10064000FFFFFFFFFFF0F0F0F0F0FFFFFF00000002
:100650000000FFFF0F0F0F0F0F3844443844FC4ACF
:100660004A4A347E02020606027E027E0263554931
:1006700041633844443C04407E201E2006027E0232
:100680000299A5E7A5991C2A492A1C4C7201724CB3
:10069000304A4D4D303048784830BC625A463D3E75
:1006A000494949007E0101017E2A2A2A2A2A444416
:1006B0005F444440514A444040444A51400000FF96
:1006C0000103E080FF000008086B6B083612362437
:1006D00036060F090F060000181800000010100061
:1006E0003040FF0101001F01011E00191D171200FB
:1006F0003C3C3C3C00000000000123022304230892
:100700002380230129022904290829402680264024
:10071000298029102320234023802F402F202F10B1
:100720002F022F012F10292029402C000100000743
:1007300008120002000073077300220100E607217F
:1007400000210100CF0709000300006F0704010327
:10075000090455071818035400650065006E0073FE
:1007600000790020004D00490044004900000004C9
:1007700003090409027300020100C03209040000E9
:1007800002010300000724010001410006240201C8
:1007900001000624020202000924030103010201F0
:1007A00000092403020401010100090504024000BC
:1007B0000000000525010101090583024000000039
:1007C00000052501010309040100020300000009DE
:1007D00021110100012221000705810340000107CA
:1007E00005020320000206C9FF0904A15C75081573
:1007F0000026FF0095400975810295200976910237
:1008000095040976B102C01201000200000040C048
:1008100016850400010001000101C13601C0260156
:10082000813601803600F60DCB0EC22311241FBE87
:10083000CFEFDAE0DEBFCDBF15E0A0E0B1E0EEEB38
:10084000FBE402C005900D92A639B107D9F728E064
:10085000A6E9B5E001C01D92A334B207E1F714E0A8
:10086000C6E1D4E004C02197FE010E94AF25C33148
:10087000D107C9F70E940F220C94DD25C1CB0F933D
:100880001F93CF93DF93EC01E881F9810190F08110
:10089000E02D09958C01CE010E94EF20800F911F61
:1008A000DF91CF911F910F9108950F931F93CF93D5
:1008B000DF93EC01FB0101900020E9F73197AF01D4
:1008C000461B570BE881F9810280F381E02D0995E1
:1008D0008C01CE010E94EF20800F911FDF91CF91FC
:1008E0001F910F9108950F931F93CF93DF93EC0106
:1008F0000E949E208C01CE010E94EF20800F911F4C
:10090000DF91CF911F910F9108950F931F93CF9374
:10091000DF93EC010E9472218C01CE010E94EF2036
:10092000800F911FDF91CF911F910F9108958EBD80
:1009300000000DB407FEFDCF8EB508950F931F93F1
:10094000CF93DF93611103C060E070E102C060E00B
:1009500070E9411103C000E010E202C000E010E0C5
:1009600040912307442381F0413051F44DB340932B
:1009700021075DB340912207409545234DBB04C03C
:100980004FB7F89440932107062B172B3F70022B8B
:10099000132B20E52CBD21E02DBDEC01DD27FE0150
:1009A0000E94E91C812FC3DF802FC1DFFE010E945E
:1009B000E31C90912307992339F08091210791300E
:1009C00011F48DBB01C08FBFDF91CF911F910F91AB
:1009D00008950F931F93CF93DF93EB01209729F096
:1009E0006130710521F0EDE003C0EBE001C0ECE007
:1009F000F0E00E94E31C0FB6F8944091E10750919B
:100A0000E2076091E3077091E4070FBE8E01000FCB
:100A1000111F000F111FF801E953F94F4083518353
:100A200062837383BC01990F880B990B0E946D241C
:100A300028EA36E44CE352E40E942125F801E6520C
:100A4000F94F20813181428153810E94212520E08C
:100A500030E040E05FE30E94D7230E943F2451E052
:100A6000C130D10509F050E0229719F0E7E0F0E03D
:100A700002C0E8E0F0E09B0141E0652FCF01DF918B
:100A8000CF911F910F915ACFBC0188E5869FD0016D
:100A9000879FB00D112420E030E040E080E090E03E
:100AA000F901EA0FFB1FE154FA4F5081552311F071
:100AB000C90141E02F5F3F4F2835310589F74111CA
:100AC00088CF6115710529F06130710521F0EDE0E5
:100AD00003C0EBE001C0ECE0F0E00C94E91C0895E9
:100AE000BC0188E5869FD001879FB00D112427E5C2
:100AF00030E040E080E090E0F901EA0FFB1FE154B4
:100B0000FA4F5081552311F0C90141E021503109BC
:100B100098F741115ECF6115710529F061307105BB
:100B200021F0EDE003C0EBE001C0ECE0F0E00C945C
:100B3000E91C0895CF92DF92EF92FF920F931F93DB
:100B4000CF93DF939C01FC01E256FA4FC081E0E0B5
:100B5000F0E00C2E000CDD0B0AE010E08AE0829F32
:100B60007001839FF00C112488E5829F6001839FB0
:100B7000D00C1124CE018E1B9F0BB8010E949C2526
:100B800097FD0A968E0D9F1DDC01AF55BA4F8C91D3
:100B9000082E000C990BD601A80FB91FA154BA4F0B
:100BA0004C91442351F0B901DF91CF911F910F91E6
:100BB000FF90EF90DF90CF900CCF3196EA30F105A7
:100BC000C9F62115310529F02130310521F0EDE07C
:100BD00003C0EBE001C0ECE0F0E00E94E91CDF9113
:100BE000CF911F910F91FF90EF90DF90CF900895DC
:100BF0009C0185E0220F331F8A95E1F751E06130B7
:100C000011F450E002C0662319F089E090E002C0C0
:100C100088E090E041E0652F91CECF93DF93EC0127
:100C2000FB018091F2069091F3060E949C259C01A5
:100C300097FF02C02E0F3F1F2C173D0749F48091EC
:100C4000D706882329F041E050E060E070E004C05E
:100C500040E050E061E070E084EF96E0DF91CF91FA
:100C60000C94C51BCF92DF92EF92FF92CF93DF934C
:100C700084EF96E00E9411142091E6063091E70679
:100C80002930310508F0E1C3F901EA5AFF4F0C940D
:100C9000AF258091F2069091F30663E070E00E9428
:100CA0009C2597FD03968093D9062630310561F483
:100CB0008091F2069091F30663E070E00E949C251B
:100CC00097FD03968093D80640E050E060E070E026
:100CD00084EF96E00E94BF1B40E050E061E070E0CE
:100CE00084EF96E00E94C51B60EF71E084EF96E010
:100CF0000E949E2040E150E060E070E084EF96E0CA
:100D00000E94BF1B8091E6069091E706892B29F48B
:100D100065E070E080E090E080DF61EE71E084EFFC
:100D200096E00E949E2065E071E084EF96E0BDDDD4
:100D30008091E6069091E706892B29F465E070E042
:100D400081E090E06ADF62ED71E084EF96E00E945E
:100D50009E2061E071E084EF96E0A7DD8091E606D9
:100D60009091E706892B29F465E070E082E090E03D
:100D700054DF63EC71E084EF96E00E949E20809146
:100D8000E6069091E706059741F441E050E060E007
:100D900070E084EF96E00E94C51B4091D90650E0B8
:100DA0004F5F5F4F052E000C660B770B84EF96E0CC
:100DB0000E94652160EC71E084EF96E094DD809103
:100DC000E6069091E706892B31F465E070E083E058
:100DD00090E023DF08C040E050E061E070E084EF85
:100DE00096E00E94C51B61EB71E084EF96E00E94E3
:100DF0009E208091E6069091E706069741F441E037
:100E000050E060E070E084EF96E00E94C51B4091E6
:100E1000D80650E04F5F5F4F052E000C660B770B36
:100E200084EF96E00E9465216EEA71E084EF96E01F
:100E30005ADD8091E6069091E706892B31F465E052
:100E400070E084E090E0E9DE08C040E050E061E05E
:100E500070E084EF96E00E94C51B6CE971E0E0C091
:100E60008091F2069091F30663E070E00E949C2569
:100E700097FD039620919C0530919D05F901EB5F4C
:100E8000FE4F8130910521F0029721F084E503C0E7
:100E900082E401C08CE4808340E050E060E070E0D8
:100EA00084EF96E00E94BF1B40E050E061E070E0FC
:100EB00084EF96E00E94C51B6AE871E084EF96E03B
:100EC0000E949E2040E150E060E070E084EF96E0F8
:100ED0000E94BF1B8091E6069091E706019729F4D6
:100EE00064E070E080E090E098DE6EE771E084EF0F
:100EF00096E00E949E208091E6069091E706029778
:100F000071F480919C0590919D05892B41F441E0FD
:100F100050E060E070E084EF96E00E94C51B6091B5
:100F2000050184EF96E0ABDC8091E6069091E70640
:100F3000019731F464E070E081E090E06EDE08C07B
:100F400040E050E061E070E084EF96E00E94C51B55
:100F500062E771E084EF96E00E949E208091E606B1
:100F60009091E706029771F480919C0590919D0500
:100F7000019741F441E050E060E070E084EF96E0DA
:100F80000E94C51B6091060184EF96E078DC809199
:100F9000E6069091E706019731F464E070E082E0A4
:100FA00090E03BDE08C040E050E061E070E084EF9C
:100FB00096E00E94C51B66E671E084EF96E00E9411
:100FC0009E208091E6069091E706029771F4809149
:100FD0009C0590919D05029741F441E050E060E04E
:100FE00070E084EF96E00E94C51B6091070184EFDA
:100FF00096E045DC8091E6069091E706019731F492
:1010000064E070E083E090E008DE08C040E050E07B
:1010100061E070E084EF96E00E94C51B64E571E03A
:1010200084EF96E060DC11C28091F2069091F306A5
:1010300062E070E00E949C2520919C0530919D0506
:10104000F901EF5FFE4F8F3F4FEF940721F00197BB
:1010500011F087E401C084E5808340E050E060E067
:1010600070E084EF96E00E94BF1B40E050E061E03A
:1010700070E084EF96E00E94C51B63E471E084EFAA
:1010800096E00E949E2040E150E060E070E084EF36
:1010900096E00E94BF1B8091E6069091E7060397B9
:1010A00029F464E070E080E090E0B7DD67E371E090
:1010B00084EF96E00E949E208091E6069091E706DC
:1010C000049771F480919C0590919D05892B41F4C2
:1010D00041E050E060E070E084EF96E00E94C51BC4
:1010E0006091010184EF96E0CADB8091E606909161
:1010F000E706039731F464E070E081E090E08DDD75
:1011000008C040E050E061E070E084EF96E00E94AB
:10111000C51B6BE271E084EF96E00E949E208091F7
:10112000E6069091E706049771F480919C059091F2
:101130009D05019741F441E050E060E070E084EFEC
:1011400096E00E94C51B6091020184EF96E097DB58
:101150008091E6069091E706039731F464E070E031
:1011600082E090E05ADD08C040E050E061E070E0CD
:1011700084EF96E00E94C51B6FE171E084EF96E07A
:101180000E949E208091E6069091E706049771F4F4
:1011900080919C0590919D05029741F441E050E0BB
:1011A00060E070E084EF96E00E94C51B609103014F
:1011B00084EF96E064DB8091E6069091E706039762
:1011C00031F464E070E083E090E027DD08C040E0A7
:1011D00050E061E070E084EF96E00E94C51B62E1A0
:1011E00071E02FC12091F2063091F3068091F00654
:1011F0009091F106821793070CF5C0919C05D09150
:101200009D05CC0FDD1FCC0FDD1FC652D94FC88006
:10121000D980EA80FB802DEC3CEC4CE85FE3C70111
:10122000B6010E943B2487FF30C02FE632E143E83D
:101230005AE3C701B6010E94D72323C028173907F4
:1012400024F5C0919C05D0919D05CC0FDD1FCC0FDE
:10125000DD1FC652D94FC880D980EA80FB8026E6C0
:1012600036E646E65FE3C701B6010E941D25181663
:1012700064F42FE632E143E85AE3C701B6010E9465
:10128000D623688379838A839B8340E050E060E0C3
:1012900070E084EF96E00E94BF1B40E050E061E008
:1012A00070E084EF96E00E94C51B61E071E084EF7E
:1012B00096E00E949E2040E150E060E070E084EF04
:1012C00096E00E94BF1B8091E6069091E706079783
:1012D00029F464E070E080E090E09FDC65EF70E06E
:1012E00084EF96E00E949E208091E6069091E706AA
:1012F000089771F480919C0590919D05892B41F48C
:1013000041E050E060E070E084EF96E00E94C51B91
:101310004091DA065091DB066091DC067091DD06A3
:1013200023E030E084EF96E0F0DA8091E6069091D9
:10133000E706079731F464E070E081E090E06DDC4F
:1013400008C040E050E061E070E084EF96E00E9469
:10135000C51B69EE70E084EF96E00E949E208091AC
:10136000E6069091E706089771F480919C059091AC
:101370009D05019741F441E050E060E070E084EFAA
:1013800096E00E94C51B4091DE065091DF066091F9
:10139000E0067091E10623E030E084EF96E0B5DAF4
:1013A0008091E6069091E706079731F464E070E0DB
:1013B00082E090E032DC08C040E050E061E070E0A4
:1013C00084EF96E00E94C51B6DED70E084EF96E01F
:1013D0000E949E208091E6069091E706089771F49E
:1013E00080919C0590919D05029741F441E050E069
:1013F00060E070E084EF96E00E94C51B4091E20639
:101400005091E3066091E4067091E50623E030E038
:1014100084EF96E07ADA8091E6069091E7060797E6
:1014200031F464E070E083E090E0F7DB08C040E076
:1014300050E061E070E084EF96E00E94C51B60ED33
:1014400070E084EF96E00E949E2084EF96E0DF91AA
:10145000CF91FF90EF90DF90CF900C94811583B1E6
:1014600085FB882780F9282F30E030939B05209357
:101470009A0523B126FB222720F9422F50E05093F2
:1014800099054093980581113BC0809196059091F4
:101490009705892BA9F18091D706882391F0809137
:1014A000F2069091F3069093F1068093F0062223C2
:1014B00011F0019601C001979093F3068093F20614
:1014C0000BC081E08093D7061092F3061092F206CB
:1014D0001092F1061092F0060FB6F8948091E10791
:1014E0009091E207A091E307B091E4070FBE8093CB
:1014F000D3069093D406A093D506B093D606B2DB5C
:1015000080919A0590919B059093970580939605FD
:1015100008952F923F924F925F926F927F928F9297
:101520009F92AF92BF92CF92DF92EF92FF920F9372
:101530001F93CF93DF9300D000D0CDB7DEB7569A7C
:10154000579A249A529A539A3E9A3F9A25982D9ADE
:1015500080917D008F7E80937D0026982E9A8091C9
:101560007D008F7D80937D0087988F9A80917E008B
:101570008F7780937E005E985F988091C200877F0E
:101580008093C2002C985A9A5B9A469A8091900058
:101590008F7780939000479A8091C0008F778093D7
:1015A000C0002CD321E04CE362E084EF96E00E947F
:1015B000861485E0E82E81E0F82E91E0C92E91E0B6
:1015C000D92E8AED96E09C838B8328E0822E912C85
:1015D00000E010E0412C512C30E8632E3FE3732EE5
:1015E000C8010E94C725282FF7018083C8010396F0
:1015F0002A830E94C725382FF60180831401F4E066
:101600002F0E311CAB80BC802A81C4012A83398310
:101610000E94C725F50181935F01FFEF8F1A9F0A92
:101620002A8139818214930481F7243539F02234D8
:1016300029F02C3419F084E5F7018083373429F040
:10164000343519F087E4F6018083EB81FC818080DA
:101650009180A280B38026E636E646E65FE3C501C8
:10166000B4010E943B2487FD61C02DEC3CEC4CE8AA
:101670005FE3C501B4010E941D2518160CF456C085
:10168000A5019401C501B4010E94842581114EC0B9
:101690000F5F1F4FFFEFEF1AFF0A8FEFC81AD80A2C
:1016A000EB81FC813496FC83EB834101033011050F
:1016B00009F096CF86E090E00E94C725182F80930E
:1016C000D90687E090E00E94C7258093D8061330A2
:1016D00010F01092D906833010F01092D80660E115
:1016E00070E088EE96E00E94E21B65E070E088EE14
:1016F00096E00E94041C1092E7061092E6060F90F6
:101700000F900F900F90DF91CF911F910F91FF904D
:10171000EF90DF90CF90BF90AF909F908F907F9091
:101720006F905F904F903F902F909CCAEB81FC810F
:101730004082518262827382ABCFCF92DF92EF926E
:10174000FF920F931F93CF93DF931F92CDB7DEB716
:101750008091D706882309F4D4C0E091E606F09181
:10176000E706E930F10508F0E2C0E15AFF4F0C94BA
:10177000AF258091F2069091F30665E070E00E943B
:101780009C2597FD05968230910579F01CF4019710
:1017900049F005C08330910559F0049761F081E06C
:1017A00090E079C083E090E076C085E090E073C07F
:1017B00086E090E070C087E090E06DC08091F20616
:1017C0009091F30664E070E00E949C2597FD0496DA
:1017D00090939D0580939C05039709F461C082E076
:1017E00090E059C081E090E09093E7068093E60690
:1017F00080919C0590919D05FC01EB5FFE4F6081FF
:1018000035C08091F2069091F30664E070E00E948A
:101810009C2597FD049690939D0580939C050397C6
:1018200009F43EC084E090E036C083E090E09093FD
:10183000E7068093E60680919C0590919D05FC014A
:10184000EF5FFE4F6081039611C01092E706109281
:10185000E6066091D90686E090E008C01092E7069F
:101860001092E6066091D80687E090E00E94CF25AE
:101870005EC08091F2069091F30664E070E00E94F1
:101880009C2597FD049690939D0580939C05039756
:1018900039F088E090E09093E7068093E60647C031
:1018A0001092E7061092E60642C087E090E090931F
:1018B000E7068093E60620919C0530919D05220F56
:1018C000331F220F331F8901085F1F4FC901865242
:1018D000994F7C0169019CE0C90ED11CF70161910F
:1018E0007F01C80169830E94C7256981681719F0C3
:1018F000C8010E94CF250F5F1F4F0C151D0571F702
:1019000016C00FB6F8948091E1079091E207A0917C
:10191000E307B091E4070FBE8093D3069093D406FB
:10192000A093D506B093D60681E08093D706109297
:10193000F3061092F2061092F1061092F0060F9044
:10194000DF91CF911F910F91FF90EF90DF90CF909B
:1019500089C9EF92FF920F931F93CF93DF931F924A
:10196000CDB7DEB77CDD88EE96E00E94081C88EEDD
:1019700096E00E94781C882341F080910001882322
:1019800019F01092000101C0D8DE8091D70688239B
:10199000E9F00FB6F8948091E1079091E207A091E9
:1019A000E307B091E4070FBE4091D3065091D406EF
:1019B0006091D5067091D606841B950BA60BB70BCC
:1019C00081329E44A105B10508F0FCC0A7ECB6E049
:1019D00080E090E00D911D912D913C9113970115A0
:1019E00011052105310551F10FB6F8944091E10739
:1019F0005091E2076091E3077091E4070FBE401B2E
:101A0000510B620B730B4531510561057105B0F047
:101A1000FC01EF5FFE4F2081243581F4282F0097D1
:101A200009F4DAC0213009F0D5C0ECE0F0E00E9402
:101A3000E91C1D921D921D921C92139701961496FB
:101A40008330910539F660E089EE97E00E947022BC
:101A5000882309F4C3C09091EA07933009F499C030
:101A60001CF4923028F0BAC0963009F483C0B6C096
:101A70002091EB076091E907615063300CF0AEC034
:101A80002551283508F0AAC0022F10E0E62E062EB8
:101A9000000CFF08913021F48091EC0781110CC0FB
:101AA00088E58E9DF0018F9DF00D1124E00FF11F50
:101AB000E154FA4F108211C038E53E9DF0013F9D80
:101AC000F00D1124E00FF11FE154FA4F9083082E1E
:101AD000000C990B29838CD82981F701EB5FFE4F0D
:101AE0008081843551F4C7010F90DF91CF911F9110
:101AF0000F91FF90EF900C944405823451F4C7018C
:101B00000F90DF91CF911F910F91FF90EF900C9468
:101B1000700588E58E9DF0018F9DF00D11240E0F4C
:101B20001F1FF801E154FA4F80818823C9F0F701A3
:101B3000E256FA4F8081082E000C990B01966AE05C
:101B400070E00E949C2580833AE03E9DF0013F9D1D
:101B5000F00D11248E0F9F1FFC01EF55FA4F2083CB
:101B6000C7010F90DF91CF911F910F91FF90EF90E0
:101B70000C949A059091E9078091D90698132EC08C
:101B80002091EC0780E128029001112440E060E000
:101B90000EC09091E9078091D80698131FC020913C
:101BA000EC0780E228029001112441E061E08AE024
:101BB00090E00F90DF91CF911F910F91FF90EF90E8
:101BC0000C949E041092D7061092E7061092E60637
:101BD00049D8FCCEEDE02ACFEBE028CF0F90DF9183
:101BE000CF911F910F91FF90EF90089561E184EFE5
:101BF00096E0FFD588EE96E00C94D61B289A209AA2
:101C00008CB580618CBD8CB580648CBD219A229A84
:101C1000089580E090E008958091500790E0209131
:101C20005107821B910908959091510780915007A7
:101C3000981750F4E92FF0E0EE5AF84F208130E089
:101C40009F5F9093510702C02FEF3FEFC9010895A6
:101C5000E091510780915007E81730F4F0E0EE5A18
:101C6000F84F808190E008958FEF9FEF08950895D9
:101C7000CF92DF92EF92FF920F931F93CF93DF9358
:101C80007C01262F972F8A0180912C07882391F0C1
:101C9000C62FD72F6E01C40ED51ECC15DD0569F0F9
:101CA0006991D701ED91FC910190F081E02DC70180
:101CB0000995F3CF642F822FDED0C801DF91CF9139
:101CC0001F910F91FF90EF90DF90CF900895CF93E9
:101CD000DF931F92CDB7DEB7698320912C072223B3
:101CE000C1F020912D07203230F021E0FC01228349
:101CF00080E090E014C080912E07E82FF0E0E15DD5
:101D0000F84F998190838F5F80932E0780932D07E2
:101D100004C061E0CE010196AED081E090E00F906A
:101D2000DF91CF910895FC01128288EE93E0A0E04C
:101D3000B0E083839483A583B68317828DE195E019
:101D4000918380830895109251071092500710924A
:101D50002E0710922D0722C081E080932C076093FC
:101D60004F0710922E0710922D070895F5CF0F936D
:101D7000062F21E040912D076FE277E080914F0719
:101D800028D010922E0710922D0710922C070F9139
:101D9000089561E0ECCF84E297E0C5CF1092DF07B1
:101DA00081E08093DD071092DC07599A589A84B538
:101DB0008F7D84BDE9EBF0E080818E7F8083808120
:101DC0008D7F808388E48093B80085E48093BC0095
:101DD00008950F93413208F046C09091DF079111AA
:101DE000FCCF32E03093DF070093DD073FEF309305
:101DF00072071092B7074093B607FB0168EB77E0D4
:101E0000DB013A2F361B341718F431913D93F9CF8B
:101E10001092DE073091DE07880F832B8093DE0758
:101E20008091DC07813041F41092DC078091DE075D
:101E30008093BB0085EC01C085EE8093BC0022231B
:101E400021F08091DF078230D1F3809172078F3FBC
:101E500079F080917207803241F08091720780336F
:101E600031F094E005C091E003C092E001C093E03E
:101E7000892F0F910895613298F42091DF07243063
:101E800089F460939407FC0126E937E0D9018A2F91
:101E9000821B861718F481918D93F9CF80E0089505
:101EA00081E0089582E0089585ED8093BC008091E3
:101EB000BC0084FDFCCF1092DF07089585EC809371
:101EC000BC001092DF0708951F920F920FB60F9279
:101ED00011242F933F934F935F936F937F938F932F
:101EE0009F93AF93BF93EF93FF938091B900887F47
:101EF000803609F49CC068F5883209F45BC090F420
:101F0000803109F454C038F4882309F4F2C08830D1
:101F100009F44DC0F1C0883109F44CC0803209F495
:101F20005DC0EAC0803409F468C048F4803309F425
:101F300055C0883309F0E0C080937207A6C0803591
:101F400009F44FC0883509F45DC0883409F0D4C065
:101F5000D2C0883909F4C3C0A8F4883709F467C02F
:101F600038F4883609F463C0803709F460C0C4C00F
:101F7000883809F4B4C0803909F45FC0803809F0AA
:101F8000BBC05BC0803B09F482C038F4803A09F4DE
:101F900066C0883A09F47BC0AFC0803C09F4A3C096
:101FA000883C09F4A0C0883B09F486C0A5C0809194
:101FB000DE0710C09091B7078091B607981770F5AB
:101FC000E091B70781E08E0F8093B707F0E0E85407
:101FD000F84F80818093BB0085EC82C080937207AC
:101FE0008AC0E091B70781E08E0F8093B707809198
:101FF000BB00F0E0E854F84F80839091B7078091E0
:10200000B6076AC0E091B70781E08E0F8093B707EB
:102010008091BB00F0E0E854F84F80838091DD07A9
:10202000811169C081E08093DC0784EA5DC083E0B0
:102030008093DF0710927307CFCF809173078032B0
:1020400008F04DC0E091730781E08E0F8093730715
:102050008091BB00F0E0EC58F84F8083BDCF8091B9
:102060007307803230F4E0917307F0E0EC58F84FDA
:1020700010826091730770E0E091D807F091D90762
:1020800084E797E009951092730718DF35C084E064
:102090008093DF071092950710929407E091DA077A
:1020A000F091DB07099580919407811105C081E0CB
:1020B0008093940710929607E091950781E08E0F28
:1020C00080939507F0E0EA56F84F80818093BB003B
:1020D0009091950780919407981708F47DCF85E833
:1020E0008093BC0009C085EC8093BC001092DF0790
:1020F00003C010927207D8DEFF91EF91BF91AF91AC
:102100009F918F917F916F915F914F913F912F910F
:102110000F900FBE0F901F90189508950F931F9367
:10212000CF93DF93DC01FB0154968C91549782305E
:1021300089F0833021F1813009F0E6C013968D914A
:102140009C911497BC01641B750BAB014150510964
:10215000BF011DC013966D917C911497CB018E1B0E
:102160009F0BFC0115968D919C911697BC01641BE9
:10217000750BAB0141505109E21BF30BC5C015961D
:102180006D917C9116976E1B7F0B621B730B57FD35
:102190001AC113968D919C911497481759070CF00A
:1021A00012C177FF04C0260F371F60E070E015965C
:1021B0008D919C911697FB01E20FF31F8E179F07DD
:1021C0001CF49C01261B370B121613060CF0FBC0E7
:1021D000A22F862F86958695869590E8899F400D3B
:1021E000511D1124FA01E75EFE4F6770A9F198E0D6
:1021F000961B492F50E0EA01CF5EDE4F88812917F8
:1022000090F4421B51092FEF30E002C0359527951D
:102210004A95E2F782230130110541F068F002305F
:10222000110589F0D0C00130110519F42081822BED
:102230000CC00130110520F480952081822305C057
:102240000230110531F4208182278083A91708F418
:10225000BAC0A91BE058FF4FA83048F10230110561
:1022600059F4EF018A2F988190959883C058DF4FD9
:1022700088508830C0F732C081E00130110509F084
:1022800080E08195EF019A2F8883C058DF4F9850E6
:102290009830D0F788EF8A0F86958695869560E806
:1022A000869FE00DF11D1124E058FF4FA770AA236F
:1022B00009F489C0B0E0A75FBE4F8C9101301105D1
:1022C00029F038F002301105E1F07DC09081892BB2
:1022D00003C0809590818923808375C088EF8A0F21
:1022E00086958695869570E8879FE00DF11D1124EF
:1022F000E058FF4FA77009F466C0B0E0A75FBE4F7B
:102300008C9190818927E8CF57FD5DC015968D91FE
:102310009C911697481759070CF055C0F7FF04C059
:102320002E0F3F1FE0E0F0E013968D919C911497E3
:10233000BF01620F731F861797071CF49C012E1BA9
:102340003F0B121613060CF03EC0CA0157FD07964C
:1023500063E0959587956A95E1F79695982F88277C
:1023600097958795E80FF91FE75EFE4F4770552751
:1023700081E090E001C0880F4A95EAF7482F0130CC
:10238000110539F078F002301105E9F42E0F3F1FE6
:1023900013C02E0F3F1FE217F307A9F08081842B93
:1023A0008193F9CF80952E0F3F1FE217F30759F065
:1023B000908198239193F9CFE217F30721F0808160
:1023C00084278193F9CFDF91CF911F910F910895C9
:1023D0000F931F93CF93DF93DC0154968C91549706
:1023E000823071F0833009F1813009F08CC013968E
:1023F000ED91FC911497E41BF50BE21BF30B20C04D
:102400001396ED91FC911497CF01861B970BBC019D
:10241000615071091596ED91FC911697CF01841BBF
:10242000950BAC01421B530B6EC01596ED91FC91C0
:102430001697CF01861B970BBC0161507109FA01F9
:1024400077FD1BC115968D919C911697681779079A
:102450000CF013C1F7FF04C02E0F3F1FE0E0F0E0C7
:1024600013968D919C911497AF01420F531F8417BF
:1024700095071CF49C012E1B3F0B121613060CF043
:10248000FCC0CB0177FD079643E0959587954A956B
:10249000E1F79695982F882797958795E80FF91F6C
:1024A000E75EFE4F6770772781E090E001C0880FFC
:1024B0006A95EAF7482F0130110541F088F00230A3
:1024C000110509F0DAC02E0F3F1F15C02E0F3F1F58
:1024D000E217F30709F4D1C08081842B8193F8CFF0
:1024E00080952E0F3F1FE217F30709F4C6C09081B5
:1024F00098239193F8CFE217F30709F4BEC08081C7
:1025000084278193F8CF77FDB8C013968D919C9165
:102510001497681779070CF0B0C057FF04C0240F58
:10252000351F40E050E015968D919C911697FA0169
:10253000E20FF31F8E179F071CF49C01241B350B21
:10254000121613060CF099C0A22F842F869586953B
:10255000869590E8899F600D711D1124FB01E75E4F
:10256000FE4F4770A9F198E0941B492F50E0EA0113
:10257000CF5EDE4F8881291790F4421B51092FEF5F
:1025800030E002C0359527954A95E2F78223013065
:10259000110541F068F00230110589F06EC001307C
:1025A000110519F42081822B0CC00130110520F493
:1025B00080952081822305C00230110531F42081ED
:1025C00082278083A91708F458C0A91BE058FF4F41
:1025D000A83048F10230110559F4EF018A2F988193
:1025E00090959883C058DF4F88508830C0F730C02E
:1025F00081E00130110509F080E08195EF019A2F0B
:102600008883C058DF4F98509830D0F788EF8A0FF2
:1026100086958695869590E8899FE00DF11D112499
:10262000E058FF4FA770AA2341F1B0E0A75FBE4F6B
:102630008C910130110529F038F002301105D1F0EC
:102640001CC09081892B18C080959081892314C06B
:1026500088EF8A0F86958695869590E8899FE00D8C
:10266000F11D1124E058FF4FA77039F0B0E0A75FCB
:10267000BE4F8C91908189278083DF91CF911F91EC
:102680000F910895CF92DF92EF92FF920F931F93D5
:10269000CF93DF937C018B01EA01690177FDA0C034
:1026A0000E94CE1B081719070CF09AC0D7FD98C0DE
:1026B000C7010E94D21BC817D9070CF091C0C701EF
:1026C0000E94CB1B823009F07FC0F70163817481C7
:1026D000CB01801B910B8C01015011094581568162
:1026E000FA01EC1BFD0BEF0121970BC0813049F47F
:1026F000F701838194818C1B9D0BE8018C010150B3
:102700001109F1E0CF16D10431F010F182E0C816C2
:10271000D104E1F165C0FE01D7FD379643E0F595A0
:10272000E7954A95E1F7F695FE2FEE27F795E795A1
:102730000E0F1F1FF801E75EFE4FC770DD2781E017
:1027400090E001C0880FCA95EAF79081892B3AC0C2
:10275000FE01D7FD379623E0F595E7952A95E1F739
:10276000F695FE2FEE27F795E7950E0F1F1FF80140
:10277000E75EFE4FC770DD2781E090E001C0880F63
:10278000CA95EAF78095908189231CC0FE01D7FD88
:10279000379683E0F595E7958A95E1F7F695FE2F54
:1027A000EE27F795E7950E0F1F1FF801E75EFE4F26
:1027B000C770DD2781E090E001C0880FCA95EAF775
:1027C0009081892780830CC0833009F08FCFF70177
:1027D00085819681801B910B8E01EC01219791CF11
:1027E000DF91CF911F910F91FF90EF90DF90CF90ED
:1027F00008951F93CF93DF93EC01162F40E450E030
:1028000060E870E0B2D48FE295E0998388838FEF1F
:102810008B8F8F8F8D8F8C8F1E8FDF91CF911F911C
:10282000089580E094E0E9E1F1E0DF019C011D9270
:1028300021503040E1F70895FC0180A1882339F050
:102840006EBD00000DB407FEFDCF8EB5089528E0E3
:1028500030E090E8A3A1B4A14C9182A58095842397
:102860008C93A1A1B2A181A5492F462319F04C91C7
:10287000842B03C04C91809584238C93A3A1B4A195
:102880004C9182A5842B8C9396952150310911F798
:1028900008951F93CF93DF93EC01162F8B8D8F3FFD
:1028A00001F1EDA1FEA190818BA5892B8083EFA181
:1028B000F8A590818CA5809589238083EDA1FEA148
:1028C00090818BA5809589238083CE01B5DFEDA112
:1028D000FEA190818BA5892B8083DF91CF911F91E1
:1028E0000895898D682F880F770B84E297E03EDA90
:1028F00060E084E297E0EBD9612F84E297E0E7D9CA
:1029000084E297E0DF91CF911F9143CA0F931F9309
:10291000CF93DF93EC01162F022F6A8F498F8B8D97
:102920008F3F09F46CC08D8D0E94D21C8F8D0E9448
:10293000D21C8F8D880F990BFC01E650F94FE49162
:10294000F0E03296FEA3EDA3FC01E750F94FE491CD
:10295000EBA78D8D880F990BFC01E650F94FE491A0
:10296000F0E03296F8A7EFA3FC01E750F94FE491AD
:10297000ECA788A1811126C08B8D0E94D21C8C8D62
:102980000E94D21C8C8D880F990BFC01E650F94FE8
:10299000E491F0E03296FCA3EBA3FC01E750F94F81
:1029A000E491EAA78B8D880F990BFC01E650F94F53
:1029B000E491F0E03296FAA3E9A3FC01E750F94F65
:1029C000E491E9A788A18823E9F018D98091230729
:1029D000882381F0813051F48DB3809321079DB31A
:1029E00080912207809589238DBB04C08FB7F8940E
:1029F0008093210780E58CBD81E08DBD03C084E21A
:102A000097E0A1D90023C9F08E8D87FD16C0CAD7E3
:102A1000EE8DF0E0D8D761E070E080E090E00E94B9
:102A2000541EEE8DF0E0D5D76AE070E080E090E0D3
:102A30000E94541EEE8DF0E0C6D76EEACE0129DF6B
:102A400065EDCE0126DF60E8CE0123DF68EACE0126
:102A500020DF6FE3CE011DDF63EDCE011ADF60E002
:102A6000CE0117DF60E4CE0114DF6DE8CE0111DF87
:102A7000113011F460E101C064E1CE010ADF60E2CF
:102A8000CE0107DF60E0CE0104DF61EACE0101DFA5
:102A900068ECCE01FEDE6AEDCE01FBDE62E1CE0126
:102AA000F8DE61E8CE01F5DE113011F46FE901C006
:102AB0006FECCE01EEDE69EDCE01EBDE113011F4EC
:102AC00062E201C061EFCE01E4DE6BEDCE01E1DE3A
:102AD00060E4CE01DEDE64EACE01DBDE66EACE0132
:102AE000D8DE6EE2CE01D5DE6FEACE01DF91CF9166
:102AF0001F910F91CECE662311F067EA01C066EAFE
:102B0000C8CEDF92EF92FF920F931F93CF93DF9384
:102B1000EC0161E2BEDE60E0CE01BBDE6FE7CE011C
:102B2000B8DE62E2CE01B5DE60E0CE01B2DE67E083
:102B3000CE01AFDE8B8D8F3F29F1EDA1FEA19081FB
:102B40008BA5892B8083EFA1F8A590818CA5892B7B
:102B50008083EDA1FEA190818BA580958923808340
:102B600009E111E0F80161918F01CE0165DEF5E028
:102B700009311F07B9F7EDA1FEA190818BA5892B23
:102B800080832DC0D090B8008CE08093B80009E11C
:102B900011E0698D062E000C770B84E297E0E6D8F1
:102BA00060E484E297E093D8E12CF12CF801EE0D7B
:102BB000FF1D608184E297E08AD88FEFE81AF80A57
:102BC000E0E1EE16F10491F784E297E0E2D8005FCD
:102BD0001F4FF5E009311F07E1F6D092B800DF91F1
:102BE000CF911F910F91FF90EF90DF9008952F925A
:102BF0003F924F925F926F927F928F929F92AF928D
:102C0000BF92CF92DF92EF92FF920F931F93CF93D9
:102C1000DF9300D01F92CDB7DEB74C017B836A8370
:102C20006A01590117019801241B350B37FF03C0B6
:102C3000319521953109C5014A815B81841B950B32
:102C400097FF03C091958195910951E059838217AF
:102C5000930714F019820BC09A2D8B2D5801092F60
:102C6000182F9A818B81DB82CA82C92ED82E8A8145
:102C70009B81A816B9065CF49C2D8D2D6801092F47
:102C8000182F9A818B81BB82AA82A92EB82E25018A
:102C9000AA81BB814A1A5B0A38016C187D0877FE4D
:102CA00003C0719461947108720157FE03C0BFEFB5
:102CB000EB1AFB0AF594E794C016D1061CF00FEF4F
:102CC0001FEF1FC001E010E01CC0D401ED91FC918A
:102CD000B9810484F585E02D9101BB23C1F04A81BF
:102CE0005B81B601C4010995E618F708F7FE04C038
:102CF000C00ED11EE40CF51CEA81FB813196FB83EA
:102D0000EA834A815B81A416B506FCF604C0A601DD
:102D10006A817B81E7CF0F900F900F90DF91CF9169
:102D20001F910F91FF90EF90DF90CF90BF90AF90E9
:102D30009F908F907F906F905F904F903F902F90DB
:102D400008950895DC01ED91FC910084F185E02D5A
:102D500009940F931F93DC01ED91FC91048CF58D88
:102D6000E02D09951F910F9108950F931F93DC019A
:102D7000ED91FC91068CF78DE02D09951F910F9137
:102D80000895EF92FF920F931F93DC01ED91FC9158
:102D900000A0F1A1E02D09951F910F91FF90EF90F8
:102DA00008950895AF92BF92CF92DF92EF92FF9273
:102DB0000F931F93CF93DF9300D000D0CDB7DEB732
:102DC0005C016901DC01ED91FC910284F385E02D49
:102DD0004B835C8369837A830995D501ED91FC91DE
:102DE0004B815C81C40ED51EB1E0CB1AD10804889A
:102DF000F589E02D7801860169817A819B01C50101
:102E00000995D501ED91FC910688F789E02DC50162
:102E10000F900F900F900F90DF91CF911F910F9116
:102E2000FF90EF90DF90CF90BF90AF900994AF925A
:102E3000BF92CF92DF92EF92FF920F931F93CF93A7
:102E4000DF9300D000D0CDB7DEB75C016901DC01B3
:102E5000ED91FC910284F385E02D4B835C836983C3
:102E60007A830995D501ED91FC9169817A819B0165
:102E70002C0D3D1D215031090488F589E02D780184
:102E80004B815C818A01C5010995D501ED91FC91C9
:102E90000688F789E02DC5010F900F900F900F90D5
:102EA000DF91CF911F910F91FF90EF90DF90CF9026
:102EB000BF90AF9009944F925F926F927F928F92E2
:102EC0009F92AF92BF92CF92DF92EF92FF920F93B9
:102ED0001F93CF93DF9300D0CDB7DEB76C015A01BB
:102EE00039014801DC01ED91FC910284F385E02D6C
:102EF00069837A8309956981462E7A81572E640CFD
:102F0000751CD601ED91FC91461457046CF40088B1
:102F1000F189E02D87019401A501B201C60109954F
:102F2000BFEF4B1A5B0AEDCF0688F789E02DC6018B
:102F30000F900F90DF91CF911F910F91FF90EF9025
:102F4000DF90CF90BF90AF909F908F907F906F90C9
:102F50005F904F900994EF92FF920F931F93DC01C3
:102F6000ED91FC91119719960D911C911A97179656
:102F70002D913C91189700A0F1A1E02D7B0140E03C
:102F800050E060E070E009951F910F91FF90EF9085
:102F90000895CF92DF92EF92FF920F931F93CF93FA
:102FA000DF9300D000D000D0CDB7DEB76C01DC01DC
:102FB000ED91FC916217730789F4041715072CF43F
:102FC000942F852FA801092F182F041B150B98018A
:102FD0002F5F3F4F048CF58DE02D12C04017510735
:102FE00009F5261737072CF4962F872FB901292FBB
:102FF000382F261B370B2F5F3F4F068CF78DE02DA8
:103000008701C601099526960FB6F894DEBF0FBE5C
:10301000CDBFDF91CF911F910F91FF90EF90DF9087
:10302000CF9008950284F385E02D2D833E834B835A
:103030005C8369837A830995D601ED91FC910488BC
:10304000F589E02D2D813E814B815C8169817A81FA
:10305000C6010995D601ED91FC910688F789E02D0E
:10306000C60126960FB6F894DEBF0FBECDBFDF9126
:10307000CF911F910F91FF90EF90DF90CF90099427
:103080006F927F928F929F92AF92BF92CF92DF9278
:10309000EF92FF920F931F93CF93DF93EC014B01BD
:1030A0005A0169013801E881F9810284F385E02D34
:1030B0000995E881F9810288F389E02D870196015D
:1030C000A501B401CE010995E881F981A501460D5C
:1030D000571D415051090288F389E02D9601B40132
:1030E000CE010995E881F9810088F189E02D9301ED
:1030F000A501B401CE010995E881F981C80CD91C5C
:10310000B601615071090088F189E02D9301A50194
:10311000CE010995E881F9810688F789E02DCE0175
:10312000DF91CF911F910F91FF90EF90DF90CF90A3
:10313000BF90AF909F908F907F906F90099408956B
:10314000FC016370648B83819481258136816130B9
:1031500039F0633029F0908787833287218708957B
:1031600030872783928781870895FC0112828BE53F
:1031700095E091838083748363835683458370874E
:10318000678352874187148A1486138616861586AC
:1031900081E0838B2FEF3FEF328B218B308B2787A2
:1031A000858B168A108E178A08952F923F924F9220
:1031B0005F926F927F928F929F92AF92BF92CF92C7
:1031C000DF92EF92FF920F931F93CF93DF93CDB7D0
:1031D000DEB76C970FB6F894DEBF0FBECDBF9C8FE5
:1031E0008B8F5B011A011F830E833701C982DC01BB
:1031F00057964D915C9158974115510509F0E5C0DE
:1032000017968D919C911897681779070CF0CAC191
:1032100019968D919C911A97281639060CF0C2C107
:103220008C2C912CFB0136E0C39EE00DF11D112486
:10323000FB87EA871E161F060CF0B4C1C40133E0F9
:10324000880F991F3A95E1F79D878C87820D931D12
:10325000181619060CF0A6C156968C91811103C060
:10326000203B08F02F5FAB8DBC8DED91FC91119749
:103270000284F385E02DCD012A8F09952A8DB5E0D2
:103280002B9F90011124F5013596FF87EE872501CC
:10329000BB82AA82A9014A195B09598B488BC101DB
:1032A00008969B8B8A8BE889F989E40DF51DE75018
:1032B000FE4F949198873D822C826101A885A0FFE2
:1032C00013C0AB8DBC8DED91FC91B981B13031F45F
:1032D0000484F585E02D2E813F8116C00684F78594
:1032E000E02DEE80FF801AC0EE81FF816E167F0612
:1032F000F1F0AB8DBC8DED91FC91B981B13051F401
:103300000484F585E02D9301A601B2018B8D9C8D7F
:1033100009950DC00684F785E02D730184019401A1
:103320004C815D816A817B818B8D9C8D0995E885BF
:10333000E695E8872C813D81280D391D3D832C833E
:103340003FEFC31AD30A4A895B89C416D50609F030
:10335000B5CF8A819B81880D991D9B838A839FEFBE
:10336000491A590AAE85BF854A165B0609F09BCFFC
:10337000EE81FF816E167F0609F4F2C0EB8DFC8DA5
:10338000A081B181F981F13079F4B5016B5F7F4F94
:103390005096ED91FC915197830128E030E0A10116
:1033A0008B8D9C8D0995DCC06A857B8568197909B0
:1033B0001E96ED91FC911F9773010C851D8594015C
:1033C000A1018B8D9C8D0995CBC0FA013496949107
:1033D000329765917491291BCB01B7E02B9F800D2B
:1033E000911D1124FA01259134913B8B2A8BFC010C
:1033F000459154915B834A83FC013296C490319687
:1034000054915C87329614913196D49089818230A0
:1034100058F0612E012E000C7708AD2D0D2C000CFC
:10342000BB0BB987A88704C019861886612C712C3C
:10343000AB8DBC8DED91FC9111970284F385E02D4D
:10344000CD010995B9818B2E912C689CC001699C96
:10345000900D789C900D1124FC01EA0DFB1DF98B59
:10346000E88B1C82712C612CE12F110FFF0B950151
:103470002E0F3F1F3B872A87AC0CB11CA5014E0FB6
:103480005F1F5F8B4E8BC1018D0D911DD7FC9A95EF
:10349000998F888F4C85641608F062C0862D90E065
:1034A00048855985480F591F489D9001499D300D09
:1034B000589D300D1124D901A20DB31DBF87AE87D1
:1034C000AA84BB8448885988DC80BA85DB1AE88DD9
:1034D000F98DE80FF91FFD8BEC8B8D2D8A0D2E8950
:1034E0003F89A216B306B9F1877061F48A819B8186
:1034F0000196EA89FB89AA81BB81EA0FFB1F7490C0
:103500009B838A8377FE20C0AB8DBC8DED91FC91AF
:10351000B981B13061F40484F585E02D2E813F81BD
:103520004C895D89B5018B8D9C8D09950DC00684F4
:10353000F785E02DEE80FF80840194014E855F8544
:10354000B2018B8D9C8D0995770C480C591CEFEFBF
:10355000AE1ABE0AC2CF3C813C0D3C8363949ACF25
:10356000AB8DBC8DED91FC9111970688F789E02D0C
:10357000CD016C960FB6F894DEBF0FBECDBFDF91C4
:10358000CF911F910F91FF90EF90DF90CF90BF9060
:10359000AF909F908F907F906F905F904F903F90F3
:1035A0002F9009946C960FB6F894DEBF0FBECDBF76
:1035B000DF91CF911F910F91FF90EF90DF90CF900F
:1035C000BF90AF909F908F907F906F905F904F9043
:1035D0003F902F900895AF92BF92CF92EF92FF92BB
:1035E0000F931F93CF93DF93EC01262F8F89988D34
:1035F000009709F03FC06A3059F41C861B862B895E
:103600008D859E8538E0239F800D911D112440C03B
:103610006D3009F4A8C08D898823C1F03B898B8562
:103620009C8546E0349F800D911D11244F81588563
:10363000481759075CF41C861B868D859E8548E0DB
:10364000349F800D911D11249E878D87E988FA880B
:103650000F8518894D855E856B857C85CB88CE016D
:10366000A4DD2B898B859C8536E0239F800D911DE1
:10367000112442C06A3079F41C861B862B89FC0118
:103680003696E4918D859E852E9F800D911D112487
:103690009E878D8768C06D3009F465C0FC01349643
:1036A0003491631708F45FC03196E491E61708F48B
:1036B0005AC0FC013296A590B490462F50E0431BAF
:1036C000510937E0349FB001359F700D1124A60ECB
:1036D000B71EF501329634913196E491332311F0FF
:1036E000E1110DC0F5013496E4912B898B859C8501
:1036F000E29F800D911D11249C878B8734C0F501BA
:10370000359644915D89552311F16B89E32FF0E0E3
:10371000E40FF11D47FDFA956E9FD0016F9FB00D2C
:1037200011244B855C854A0F5B1FEF81F885E417F8
:10373000F5076CF41C861B86FC013696E4918D859A
:103740009E856E9F800D911D11249E878D87E9882F
:10375000FA880F8518894D855E856B857C85CB88B9
:10376000CE0123DDBFCF81E090E0DF91CF911F91AB
:103770000F91FF90EF90CF90BF90AF900895FC0114
:1037800074876387568745870895FC01708B678728
:10379000528B418B0895FC0184890895FC01878137
:1037A00090850895FC01818592850895FC01108221
:1037B0001182128213828AE090E0958384831682BC
:1037C00017820895DC0117966C931797FB01FF276A
:1037D00093D1E11104C016961C92169704C083E0A1
:1037E00016968C9316970FB6F8944091E107509176
:1037F000E2076091E3077091E4070FBE4D935D937C
:103800006D937C9313970895FC01758364830895E9
:10381000CF92DF92EF92FF92DC011796EC9117970F
:10382000F0E06AD121E0E11101C020E016969C9100
:103830001697892F877F16968C93169791FB3327BF
:1038400030F9231799F00FB6F8944091E1075091A1
:10385000E2076091E3077091E4070FBE4D935D931B
:103860006D937C93139792E0892735C00FB6F89437
:10387000C090E107D090E207E090E307F090E40702
:103880000FBE4D915D916D917C911397C41AD50A2D
:10389000E60AF70A14964D915C91159760E070E086
:1038A000C416D506E606F706C8F091709217B1F077
:1038B0000FB6F8944091E1075091E2076091E30759
:1038C0007091E4070FBE4D935D936D937C931397B6
:1038D00091E08927886016968C93169716968C919E
:1038E00083FB882780F9FF90EF90DF90CF900895B9
:1038F000FC01868180FD04C083FB882780F9089540
:1039000080E008951DBA109268001CBC10BE1FBA5A
:1039100010927A0010926E0010926F001092710057
:10392000109272001092C900ECEBF0E0108214B813
:1039300017B81AB81DB810BA108215B818B81BB845
:103940001EB811BA0895F894E1E6F0E020E820836B
:10395000108283E084BD85BDEEE6F0E08081816069
:10396000808381E08093800092E090938100809337
:103970009000909391009093C00094E09093C100C8
:103980008093C2008093C3001092C40086E88093A5
:103990007A0020937B0010927E0010927D00C3D1AC
:1039A00078940895893170F4E9EFF6E0880FE80F14
:1039B000F11D9591E491F0E08FB7F8942181922B5D
:1039C00091838FBF0895E93150F4EE0FE051F34E2B
:1039D0000994E93120F4EE0FEE5DF24E099408955A
:1039E000289A0895299A08952A9A08952B9A089555
:1039F0002F9A6AC0589A58C0599A08955A9A0895A9
:103A00005B9A0895469A66C0479A6AC05E9A08957E
:103A10005F9A6CC02C9A08952D9A4AC02E9A4EC077
:103A20008F9A08958E9A08958D9A08958C9A089584
:103A3000899A0895889A08955C9A08955D9A0895E0
:103A4000769A089528980895299808952A980895AF
:103A50002B9808952F9838C0589826C059980895E3
:103A60005A9808955B980895469834C0479838C08E
:103A70005E9808955F983AC02C9808952D9818C0C4
:103A80002E981CC08F9808958E9808958D9808954B
:103A90008C98089589980895889808955C98089559
:103AA0005D98089576980895E4B5EF7DE4BD089596
:103AB000E0918000EF77E09380000895E09180002E
:103AC000EF7DE09380000895E0918000E77FE09330
:103AD00080000895E0919000EF77E09390000895C2
:103AE000E091C000EF77E093C0000895E091C2003C
:103AF000E77FE093C2000895E93130F4EE0FEE0F56
:103B0000FF27E857F24E0994EE270895E1E0089563
:103B1000E3B1E170D9F70895E3B1E270B9F7089520
:103B2000E3B1E47099F70895E3B1E87079F7089587
:103B3000E3B1E07859F70895E9B1E17039F70895F4
:103B4000E9B1E27019F70895E9B1E470F9F6089562
:103B5000E9B1E870D9F60895E6B1E074B9F60895D0
:103B6000E6B1E07899F60895E9B1E07479F6089540
:103B7000E9B1E07859F60895E3B1E07139F60895B6
:103B8000E3B1E07219F60895E3B1E07429F5089500
:103B9000EFB1E07809F50895EFB1E074E9F4089524
:103BA000EFB1E072C9F40895EFB1E071A9F408959E
:103BB000EFB1E27089F40895EFB1E17069F408950E
:103BC000E9B1E07149F40895E9B1E07229F408958A
:103BD000ECB1E07409F40895E1E00895F89484B735
:103BE000877F84BF80916000806180936000109225
:103BF000600080E29EE40197F1F781E08093E000AD
:103C000080E28093D80080E69AEE0197F1F77ADEA1
:103C10000C94003FFFCFF89475DE80E69AEE019792
:103C2000F1F70C940000FFCF8F938FB78F938091A3
:103C3000E0078D5F8D37D0F48093E0078091E10736
:103C40008F5F8093E107D8F08091E2078F4F8093D8
:103C5000E207A8F08091E3078F4F8093E30778F0A5
:103C60008091E4078F4F8093E40709C08D578093BC
:103C7000E0078091E1078E5F8093E10728F780914C
:103C8000E5078C5F8093E50758F08091E6078F4F3A
:103C90008093E60728F08091E7078F4F8093E7072E
:103CA0008F918FBF8F911895CF92DF92EF92FF92F5
:103CB0006B017C0119D09B01C114D104E104F10412
:103CC00071F012D0621B730B683E7340A8F381E061
:103CD000C81AD108E108F10828513C4FEDCFFF90F8
:103CE000EF90DF90CF9008950FB6F89466B515B2B7
:103CF0007091E5078091E6079091E7070FBE10FEEF
:103D000005C06F3F19F07C5F8F4F9F4F1124002437
:103D1000660F001C660F001C702908958091E80052
:103D200080FFFCCF08958091D80087FF02C085FFF7
:103D30001BC081E08093D70080EA8093D80082E1A5
:103D400089BD09B400FEFDCF80E98093D8001092B0
:103D5000E000109245081092440810924308109217
:103D6000E1008CE08093E20008951F920F920FB65D
:103D70000F9211248F939F939091E1001092E10094
:103D800093FF0FC01092E90081E08093EB00109246
:103D9000EC0082E38093ED0088E08093F0001092C5
:103DA000450892FF24C080914508882301F1809145
:103DB0004308882391F081508093430881110DC0FE
:103DC00081E08093E9008091E80085FF03C01092B4
:103DD000F100F9CF8AE38093E80083E08093E90063
:103DE0008091F200882319F08AE38093E80090FF25
:103DF0000CC080E18093E2001092450881E080933E
:103E0000440880EA8093D80019BC80914408882334
:103E100079F094FF0DC082E189BD09B400FEFDCFA9
:103E200080E98093D8008DE08093E20010924408EE
:103E30009F918F910F900FBE0F901F9018951F921A
:103E40000F920FB60F921124EF92FF920F931F93D0
:103E50002F933F934F935F936F937F938F939F9392
:103E6000AF93BF93CF93EF93FF931092E9008091AC
:103E7000E80083FFF7C0C091F1008091F10000914C
:103E8000F1001091F100E090F100F090F10020912C
:103E9000F1003091F10092EF9093E800863009F044
:103EA0003FC086E0EBE2F7E045915591401751079E
:103EB00011F0359615C0459155914E155F0511F0DD
:103EC00033960EC04591559184912F3F310519F0DD
:103ED00010F02FEF30E0281708F4822F3EEF08C0D3
:103EE000815011F7BFC0891B3093E8008823A9F0E7
:103EF0009091E800292F2570D9F392FDE1C0982F09
:103F0000813408F090E4292F222369F3FA014591C6
:103F10004093F100AF012150F7CF903449F3D0C066
:103F2000853041F48EEF8093E800F8DE006800935E
:103F3000E300C6C08930F1F4C1118FC00093450879
:103F4000109243088EEF8093E80081E0E9E1F8E009
:103F50008093E90095919093EB00992331F095912E
:103F60009093EC0095919093ED008F5F853081F7F1
:103F70008EE143C0883049F4C03809F073C0CEDE0A
:103F8000809145088093F10014C0811116C0C6DEEF
:103F9000C23851F4E092E9008091EB0085FB88275C
:103FA00080F91092E90001C080E08093F100109246
:103FB000F1008EEF8093E80083C0982F9D7F9130B1
:103FC00009F042C0C230F1F4012BE1F44E2D4F77DD
:103FD0009FEF940F9630B0F49EEF9093E8004093DB
:103FE000E900833009F43EC089E18093EB0081E071
:103FF00090E001C0880F4A95EAF78093EA0010929A
:10400000EA005EC0EA94EF28F9F48130E9F4C13A9D
:1040100049F53EEF8091E800982F9570D9F382FD25
:104020004FC0822F213408F080E4982F992321F08B
:104030001092F1009150FACF281B3093E800211123
:10404000E9CF803439F33CC0893C61F4C03451F489
:104050008EEF8093E80062DEDEDDEA94EF2811F453
:10406000C13221F081E28093EB002AC00115134098
:10407000C9F724303105B1F78091E80082FFFCCF09
:104080003091F1002091F1009091F1008091F100C8
:104090004BEF4093E8004EEF4093E800393A39F493
:1040A000253401F7923CF1F68B36E1F697DD3B388B
:1040B000C9F6253CB9F69D31A9F6803799F6CCCFE3
:1040C000FF91EF91CF91BF91AF919F918F917F9190
:1040D0006F915F914F913F912F911F910F91FF90A1
:1040E000EF900F900FBE0F901F901895CF92DF9218
:1040F000EF92FF920F931F93CF93DF936C01EB012D
:104100007B01E40EF51E00E010E0CE15DF0561F046
:104110006991D601ED91FC910190F081E02DC601ED
:104120000995080F191FF1CFC801DF91CF911F9199
:104130000F91FF90EF90DF90CF9008958F929F9214
:10414000AF92BF92CF92DF92EF92FF920F931F93A5
:10415000CF93DF93CDB7DEB7A0970FB6F894DEBF4D
:104160000FBECDBF4C016B01CB0108D58C01A12C3A
:10417000B12C01151105F9F078010132110518F083
:1041800080E2E82EF12CA701B601CE010196EDD414
:10419000CE0CDF1C0E191F09D401ED91FC91028099
:1041A000F381E02DA701BE016F5F7F4FC401099528
:1041B000A80EB91EDECFC501A0960FB6F894DEBFDB
:1041C0000FBECDBFDF91CF911F910F91FF90EF9068
:1041D000DF90CF90BF90AF909F908F900895CF9336
:1041E000DF9300D0CDB7DEB72DE029832AE02A8304
:1041F000DC01ED91FC910280F381E02D42E050E082
:10420000BE016F5F7F4F09950F900F90DF91CF91A7
:104210000895CF93DF93CDB7DEB72B970FB6F89401
:10422000DEBF0FBECDBFDE011C96E3E34E9F4427E9
:104230000E0E411D302D5E9F5527400D511D6E9F66
:104240006627500D611D7E9F7727600D711D11241B
:10425000340F451F561F671F711D350F461F571F0F
:10426000611D711D370F411D511D611D711D769519
:104270006795579547953795EAE03E9F312D112474
:10428000305D3E93411551056105710509F0CDCFB3
:10429000222321F01197FD012DE22083FC012081D2
:1042A0003181AE014A1B5B0B445F5F4FF9012281F4
:1042B0003381BD01F90109952B960FB6F894DEBF45
:1042C0000FBECDBFDF91CF91089577FF09C07095E4
:1042D0006095509541955F4F6F4F7F4F21E001C032
:1042E00020E097CF4F925F926F927F928F929F9232
:1042F000AF92BF92CF92DF92EF92FF920F931F93F4
:10430000CF93DF93CDB7DEB728970FB6F894DEBF13
:104310000FBECDBF7C012A013B01D22E20E030E050
:10432000A901C301B201A7D287FF06C077FA709432
:1043300077F8709401E001C000E010E060E070E008
:1043400080E09FE31D1539F02DEC3CEC4CEC5DE377
:1043500078D31F5FF7CF9B01AC01C301B20127D215
:104360002B013C018CD24B015C01202FAB01BC0125
:10437000C7014FDF6C01112309F439C0C501B40135
:10438000AAD29B01AC01C301B20110D22EE2298353
:10439000183008F017E05E0122E0A20EB11C012FD8
:1043A0000150B8F020E030E040E251E44AD32B0164
:1043B0003C0165D280E3860FD5018D935D0170E0ED
:1043C00080E090E08AD29B01AC01C301B201EED142
:1043D000E7CFD701ED91FC9141E0410F50E0028021
:1043E000F381E02DBE016F5F7F4FC7010995C601C4
:1043F00028960FB6F894DEBF0FBECDBFDF91CF91E8
:104400001F910F91FF90EF90DF90CF90BF90AF90F2
:104410009F908F907F906F905F904F90089593DA68
:104420000E94890A0E94A90CFDCF08958091450839
:10443000882371F08FB7F89492E09093E9002BE60F
:104440009091E80095FF03C02093E800F9CF8FBF5B
:10445000109242080895FC0180914508882369F173
:104460009FB7F89481E08093E9002091E400275EF3
:104470003091E80035FD0EC09FBF9091E400921787
:10448000E1F0909145089923C1F09FB7F89480938B
:10449000E900EECF6093F1008091E80085FD06C051
:1044A0008AE38093E8001092430803C084E080937D
:1044B00043089FBF81E090E0089581E0828380E01F
:1044C00090E00895FC01E05CFF4F20812C3338F42C
:1044D00031E0320F3083FC01E20FF11D6483089557
:1044E000EF92FF920F931F93CF93DF93EC012FB7BF
:1044F000F89480914508811102C02FBFE9C084E083
:104500008093E9008BE69091E80095FD07C092FF4B
:1045100003C08093E800F7CF2FBFD9C01091F100FE
:104520009091F100F090F100E090F1008091E800AE
:1045300085FD03C08BE68093E8002FBF1F70092F15
:104540000F700F5F88EF810F873008F081C06623FE
:1045500011F06013BCC0907F183041F4903809F01E
:10456000B6C01982FE01EF5BFF4F31C01930D1F4A4
:10457000903909F0ACC0EE2031F081E08983FE0172
:10458000ED5BFF4F24C01982FE01EF5BFF4F0190EE
:10459000F081E02D309709F457C040E06F2D802F57
:1045A000099552C01A3049F4903A09F090C082E05F
:1045B0008983FE01EB5BFF4F0AC01B3079F4903B0F
:1045C00009F085C083E08983FE01E95BFF4F01901C
:1045D000F081E02D3097C1F14E2DE0CF1C3049F431
:1045E000903C09F074C084E08983FE01E75BFF4FD3
:1045F0000AC01D3089F4903D09F069C085E08983C7
:10460000FE01E55BFF4F0190F081E02D3097E1F076
:104610006F2D802F099518C0903E09F058C086E094
:104620008983FE01E35BFF4F0190F081E02D30971D
:1046300059F06E2D6F7780E8689FB00111248F2D9F
:104640008F77682B802F09950883FA82EB8223C02D
:10465000143041F4692FCE0135DF6F2DCE0132DFEA
:104660006E2D24C08BEF810F8330B8F4692FCE01FB
:1046700029DF153041F06F2DCE0124DF173019F4FA
:104680006E2DCE011FDFFE01E05CFF4F80818A832B
:10469000108287E0898381E01BC01F30C1F4FE01D6
:1046A000E05CFF4F8081882321F0692FCE010ADF73
:1046B0000EC088E08983FE01E15BFF4F0190F0812D
:1046C000E02D309709F4C0CF892F0995BDCF80E048
:1046D000DF91CF911F910F91FF90EF9008959FB7B9
:1046E000F894809145088823C1F082E08093E90026
:1046F0003BE62091E800822F807225FF0EC080915A
:10470000F100811103C03093E800F3CF2091E8005D
:1047100025FD03C02BE62093E8009FBF089520915C
:104720004208211105C0DBDF882329F0809342086D
:1047300081E090E0089580E090E008959C019091E0
:104740004208992321F010924208892F04C0C90120
:10475000C6DF882311F090E008958FEF9FEF089552
:104760009C0190914208992311F0892F06C0C9013C
:10477000B6DF882321F08093420890E008958FEF00
:104780009FEF0895EAE3F8E088E0DF011D928A9543
:10479000E9F788EE93E0A0E0B0E083839483A583FB
:1047A000B68387E895E09183808308955058BB27AE
:1047B000AA270ED008C1F9D030F0FED020F031F495
:1047C0009F3F11F41EF4EEC00EF4E095E7FBE4C049
:1047D000E92F0AD180F3BA17620773078407950798
:1047E00018F071F49EF522C10EF4E0950B2EBA2F4D
:1047F000A02D0B01B90190010C01CA01A0011124E7
:10480000FF27591B99F0593F50F4503E68F11A1692
:10481000F040A22F232F342F4427585FF3CF469523
:1048200037952795A795F0405395C9F77EF41F1645
:10483000BA0B620B730B840BBAF09150A1F0FF0F0F
:10484000BB1F661F771F881FC2F70EC0BA0F621FFB
:10485000731F841F48F4879577956795B795F795EB
:104860009E3F08F0B3CF9395880F08F09927EE0F7D
:104870009795879508956CD008F481E00895BCD091
:1048800088F09F5790F0B92F9927B751A0F0D1F039
:10489000660F771F881F991F1AF0BA95C9F712C0C3
:1048A000B13081F0C3D0B1E00895C0C0672F782F38
:1048B0008827B85F39F0B93FCCF38695779567952F
:1048C000B395D9F73EF490958095709561957F4F9B
:1048D0008F4F9F4F0895E89409C097FB3EF4909541
:1048E0008095709561957F4F8F4F9F4F9923A9F0C9
:1048F000F92F96E9BB279395F69587957795679558
:10490000B795F111F8CFFAF4BB0F11F460FF1BC09B
:104910006F5F7F4F8F4F9F4F16C0882311F096E92E
:1049200011C0772321F09EE8872F762F05C06623DC
:1049300071F096E8862F70E060E02AF09A95660F95
:10494000771F881FDAF7880F9695879597F908954E
:10495000990F0008550FAA0BE0E8FEEF1616170690
:10496000E807F907C0F012161306E407F50798F0F8
:10497000621B730B840B950B39F40A2661F0232B11
:10498000242B252B21F408950A2609F4A140A6958D
:104990008FEF811D811D089597F99F6780E870E072
:1049A00060E008959FEF80EC089500240A941616A5
:1049B000170618060906089500240A94121613060D
:1049C000140605060895092E0394000C11F488239B
:1049D00052F0BB0F40F4BF2B11F460FF04C06F5FB7
:1049E0007F4F8F4F9F4F089557FD9058440F551F8D
:1049F00059F05F3F71F04795880F97FB991F61F061
:104A00009F3F79F087950895121613061406551FD7
:104A1000F2CF4695F1DF08C0161617061806991F43
:104A2000F1CF86957105610508940895E894BB2738
:104A300066277727CB0197F908958ADF08F48FEF6F
:104A400008950BD0C0CFB1DF28F0B6DF18F0952362
:104A500009F0A2CFA7CF1124EACFC6DFA0F3959F1C
:104A6000D1F3950F50E0551F629FF001729FBB2755
:104A7000F00DB11D639FAA27F00DB11DAA1F649F01
:104A80006627B00DA11D661F829F2227B00DA11DB4
:104A9000621F739FB00DA11D621F839FA00D611D3A
:104AA000221F749F3327A00D611D231F849F600D5B
:104AB000211D822F762F6A2F11249F5750408AF094
:104AC000E1F088234AF0EE0FFF1FBB1F661F771F20
:104AD000881F91505040A9F79E3F510570F05CCF60
:104AE000A6CF5F3FECF3983EDCF38695779567950C
:104AF000B795F795E7959F5FC1F7FE2B880F911D3E
:104B00009695879597F9089523DF880B990B08955B
:104B1000AA1BBB1B51E107C0AA1FBB1FA617B707E3
:104B200010F0A61BB70B881F991F5A95A9F78095FF
:104B30009095BC01CD01089597FB072E16F40094C3
:104B400006D077FD08D0E4DF07FC05D03EF4909551
:104B500081959F4F0895709561957F4F0895EE0F51
:104B6000FF1F0590F491E02D0994FB01DC0102C0C8
:104B700005900D9241505040D8F70895FC010590E2
:104B80000020E9F7809590958E0F9F1F0895F99961
:104B9000FECF92BD81BDF89A992780B50895262F42
:104BA000F999FECF1FBA92BD81BD20BD0FB6F89412
:0E4BB000FA9AF99A0FBE01960895F894FFCF75
:104BBE00014747470054545400000103070F1F3F9D
:104BCE007F0080C0E0F0F8FCFE0000000000000056
:104BDE0000000000000000000000000000000000C7
:104BEE0000000000000000000000000000000000B7
:104BFE0000000000000000000000000000000000A7
:104C0E000000000000000000808080000000000016
:104C1E00000000000000000000008080C0C0000006
:104C2E000000000000000000000000000000000076
:104C3E000000000000000000000000000000000066
:104C4E000000000000000000000000000000000056
:104C5E000000000000000000000000000080C0E026
:104C6E00F0F8FCF8E000000000000000000000007A
:104C7E0000000000000080808080800080800000A6
:104C8E000000808080808000FFFFFF000000008019
:104C9E0080808000008080000080FFFF8080008088
:104CAE008000808080800080800000000000808076
:104CBE0000008C8E84000080F8F8F8800000000060
:104CCE00000000000000000000F0F0F0F0F0F0F046
:104CDE00F0F0F0F0F0E0E0C08000E0FCFEFFFFFF3F
:104CEE007FFFFFFFFFFF000000000000000000003C
:104CFE0000000000FEFFC70101010183FFFF00005D
:104D0E007CFEC70101010183FFFFFF0038FEC78350
:104D1E0001010183C7FFFF000001FFFF010100FF3A
:104D2E00FF0701010100007FFF80000000FFFF7FF1
:104D3E000000FFFFFF000001FFFFFF010000000069
:104D4E00000000000000000000030F3F7F7FFFFF08
:104D5E00FFFFFFFFFFE7C7C78F8F9FBFFFFFC3C0D8
:104D6E00F0FFFFFFFFFFFCFCFCFCFCFCFCFCF8F87A
:104D7E00F0F0E0C00001030303030301030300008E
:104D8E0000000103030303010103010000000103FE
:104D9E0003030301010303000000030300000003EB
:104DAE0003000000000000000103030303030100E1
:104DBE0000000103010000000303010000000000D9
:104DCE0000000000000000000000000080C0E0F0C5
:104DDE00F9FFFFFFFFFF3F1F0F87C7F7FFFF1F1FE3
:104DEE003DFCF8F8F8F87C7DFFFFFFFFFFFFFFFFAB
:104DFE007F3F0F0700303000000000000000000071
:104E0E0000000000000000000000000000FEFEFC9C
:104E1E000000000000000000000000000000000084
:104E2E00000000000000E0C00000000000000000D4
:104E3E000000003030000000000000000000000004
:104E4E0000000000000000000000C0FEFFFFFFFF9A
:104E5E00FFFFFFFFFF7F7F3F1F0F071F7FFFFFF843
:104E6E00F8FFFFFFFFFFFEF8E0000000010000006A
:104E7E000000000000FEFE000000FCFEFC0C06061A
:104E8E000EFCF80000F0F81C0E0606060CFFFFFFE5
:104E9E000000FEFE00000000FCFEFC00183C7E66DA
:104EAE00E6CE84000006FFFF0606FCFEFC0C06069E
:104EBE00060000FEFE0000C0F8FC4E4646464E7C44
:104ECE007840183C76E6CECC800000000000000052
:104EDE000000000000000000000000000001070FAD
:104EEE001F1F3F3F3F3F1F0F030000000000000049
:104EFE0000000000000F0F0000000F0F0F00000059
:104F0E00000F0F000003070E0C18180C060F0F0FE2
:104F1E000000010F0E0C180C0F070100040E0C18E8
:104F2E000C0F070000000F0F00000F0F0F00000006
:104F3E000000000F0F00000007070C0C181C0C06D9
:104F4E000600040E0C180C0F0700000000000000F5
:104F5E000000000000000000000000000000000043
:104F6E000000000000000000000000000000000033
:104F7E000000000000000000000000000000000023
:104F8E000000000000000000000000000000000013
:104F9E000000000000000000000000000000000003
:104FAE0000000000000000000000000000000000F3
:104FBE0000000000000000000000000000000000E3
:104FCE0000000000000000000000000000670E3826
:104FDE000E090E370E0C0E140E280E00000000EBFC
:104FEE001A7620090E8D104213A116A216C116A90B
:104FFE0016B516F715D116A0187B15E8118E105B95
:10500E0017AB17C917401800000000EB1A762009DD
:10501E000E8D101522A116A216C116A916B516F7D9
:10502E0015D116A0189F18D21617175B17AB17C9F4
:10503E00174018000000002B227620090E16228F32
:06504E00239E23B02300A5
:00000001FF
