:1000000099C60000BFC60000BDC60000BBC6000008
:10001000B9C60000B7C60000B5C60000B3C60000F0
:10002000B1C60000AFC600000C948E260C94F826D2
:10003000A9C60000A7C60000A5C60000A3C6000010
:10004000A1C600009FC600009DC600009BC6000020
:1000500099C6000097C6000095C600000C94ED25D7
:1000600091C600008FC600008DC600008BC6000040
:1000700089C6000087C6000085C6000083C6000050
:1000800081C600007FC600007DC600007BC6000060
:100090000C94EC1177C6000075C6000073C6000012
:1000A00071C600006FC600006DC60000E408CC09F0
:1000B000B009AD0A940ACB08D808C50B720B1C0E08
:1000C000410E550E640E780E880E910E9C0EB80EE1
:1000D0009D29A129B5298D2A8D2AC0298D2ACA29B1
:1000E0008D2ADE29F229042A8D2A162A282A526509
:1000F0007475726E202020202020004368616E6E8F
:10010000656C20333A20004368616E6E656C203266
:100110003A20004368616E6E656C20313A200053CE
:100120004554205343414C4520464143544F5200CF
:1001300052657475726E2020202020200043686173
:100140006E6E656C20333A20004368616E6E656C9C
:1001500020323A20004368616E6E656C20313A208F
:100160000053455420474154452F54524947474571
:10017000520052657475726E2020202020202020AD
:10018000202020004368616E6E656C20333A2000A9
:100190004368616E6E656C20323A20004368616E80
:1001A0006E656C20313A2000534554204E4F544523
:1001B000205052494F52495459005363616C652095
:1001C000466163746F7220202020200020200043AD
:1001D000432020202020202020202020200020201C
:1001E0000050697463682042656E642020202000FE
:1001F000476174652F547269672020202020004ECB
:100200006F7465205072696F72697479200053456C
:100210005454494E4753002200FF210000010307B8
:100220000F1F3F7F0080C0E0F0F8FCFEDB40A4A67B
:100230002EAFDA0281DA1281DA02818F2000A1C8A2
:10024000D300408DAED580A8000060000000000003
:10025000000000000000000000E0000000000000BE
:100260000000000000000001E000000000000000AD
:1002700000000000000001F000000000000000008D
:10028000000000000003F00000000000000000007B
:100290000000000007F00000000000000000000067
:1002A00000000007F800000000000000000000004F
:1002B00000000FF800000003C0007E000001E00015
:1002C0007F0FF800000003C000FE000001E000FF07
:1002D000EFF800000003C000FE000001E000FFFF97
:1002E000F800000003C000F00000000F007FFE7F58
:1002F000C0000003C000F00000000F003FFE7FF8C8
:100300003FF1FBCFFCFEF3BC3DEFE01FFE7FFF7F24
:10031000FBFFDFFEFEFFBC3DEFE01FC6FFFF7FFBE4
:10032000FFDFFEFEFFBC3DEFE00FE3C7FE787BC3BF
:10033000DE1EF0FFBC3DEF0007FF87FC787BC3DECD
:100340001EF0F83C3DEF0001FFFFF0007BC3C01E34
:10035000F0F03C3DEF0001F37FE03FFBC3CFFEF048
:10036000F03C3DEF0003E33F807FFBC3DFFEF0F096
:100370003C3DEF0007E73C00787BC3DE1EF0F03C1D
:100380003DEF0007FFBE00787BC3DE1EF0F03C3D72
:10039000EF0007FFFE00787BC3DE1EF0F03C3DEF70
:1003A000000FFFFE007FFBFFDFFEF0F03FFDEFE000
:1003B0000FFFFF007FFBFFDFFEF0F03FFDEFE00FE0
:1003C000F9FF003E79F9CF9EF0F01F3DE7E01FF105
:1003D000FF0000000000000000000000001F80FF80
:1003E000007FFFFFFFFFFFFFFFFFFFE01C007F001C
:1003F0007FFFFFFFFEB46D888D18E000001F007FB7
:10040000FFFFFFFE95AD7DB577E000000F007FFF99
:10041000FFFFFEA5AD9D8D19E0000006007FFFFFE8
:10042000FFFEB5ADEDB57EE00000000000018000EC
:100430000000000000000000038000000000000039
:1004400000000007C000000000000000000007C01E
:100450000000000000000000000FC00000000000CD
:10046000000000001FE00000000000000000001F6E
:10047000E00000000000000000003FE0000000007D
:1004800000000000003FF00000000000000000003D
:100490007FF0000000000000001FF87FF000000067
:1004A000000000003FFE7FF0000000000000003F61
:1004B000FF7FF0000000000000001FFFFBE00000D5
:1004C00000000000000FFFF9FFC000000000000066
:1004D0000FFFF9FFF800000000000007FFF1FFFF29
:1004E00000000000000003FC73FFFF80000000001C
:1004F0000001FE3FFFFF80000000000000FF1E0F14
:10050000FF000000000000007FFE1FFC0000000054
:100510000000003FFFFFF8000000000000000FDFB8
:10052000FFE0000000000000001F19FFC0000000F5
:10053000000000003F3CFF00000000000000007EC3
:100540007CF800000000000000007FFE7C0000003E
:100550000000000000FFFFFC0000000000000000A1
:10056000FFFFFE0000000000000000FFFFFE000093
:10057000000000000001FFEFFE000000000000008E
:1005800001FFCFFE0000000000000003FF07FE0097
:1005900000000000000003FC07FE00000000000057
:1005A0000003F003FE00000000000000018000FED8
:1005B000000000000000000000007E0000000000BD
:1005C00000000000003E00000000000000000000ED
:1005D0000C000000000000078000FC000003C000C9
:1005E0000000078001FC000003C00000000780013C
:1005F000FC000003C0000000078001E00000001EB6
:10060000000000078001E00000001E007FE3F79F6C
:10061000F9FDE7787BDFC0FFF7FFBFFDFDFF787BCB
:10062000DFC0FFF7FFBFFDFDFF787BDFC0F0F7877E
:10063000BC3DE1FF787BDE00F0F787BC3DE1F07860
:100640007BDE0000F787803DE1E0787BDE007FF70E
:10065000879FFDE1E0787BDE00FFF787BFFDE1E0EB
:10066000787BDE00F0F787BC3DE1E0787BDE00F0D0
:10067000F787BC3DE1E0787BDE00F0F787BC3DE129
:10068000E0787BDE00FFF7FFBFFDE1E07FFBDFC02E
:10069000FFF7FFBFFDE1E07FFBDFC07CF3F39F3D91
:1006A000E1E03E7BCFC00000000000000000000041
:1006B00000FFFFFFFFFFFFFFFFFFFFC0FFFFFFFF88
:1006C000FD68DB111A31C0FFFFFFFFFD2B5AFB6AEB
:1006D000EFC0FFFFFFFFFD4B5B3B1A33C0FFFFFF87
:1006E000FFFD6B5BDB6AFDC000000000003E5B4F5E
:1006F0005B3E3E6B4F6B3E1C3E7C3E1C183C7E3C82
:10070000181C577D571C1C5E7F5E1C00183C18008F
:10071000FFE7C3E7FF0018241800FFE7DBE7FF301F
:10072000483A060E2629792926407F050507407F8D
:1007300005253F5A3CE73C5A7F3E1C1C08081C1C00
:100740003E7F14227F22145F5F005F5F06097F01F6
:100750007F006689956A606060606094A2FFA294E1
:1007600008047E040810207E201008082A1C0808AF
:100770001C2A08081E101010100C1E0C1E0C3038FD
:100780003E3830060E3E0E06000000000000005FFE
:1007900000000007000700147F147F14242A7F2A1A
:1007A00012231308646236495620500008070300DC
:1007B000001C2241000041221C002A1C7F1C2A0828
:1007C000083E08080080703000080808080800008B
:1007D00060600020100804023E5149453E00427FFF
:1007E000400072494949462141494D331814127F4E
:1007F0001027454545393C4A4949314121110907EE
:100800003649494936464949291E0000140000006E
:100810004034000000081422411414141414004140
:1008200022140802015909063E415D594E7C1211FD
:10083000127C7F494949363E414141227F41414135
:100840003E7F494949417F090909013E41415173B0
:100850007F0808087F00417F41002040413F017F21
:10086000081422417F404040407F021C027F7F04E9
:1008700008107F3E4141413E7F090909063E415132
:10088000215E7F09192946264949493203017F0122
:10089000033F4040403F1F2040201F3F4038403F23
:1008A000631408146303047804036159494D430039
:1008B0007F4141410204081020004141417F040270
:1008C0000102044040404040000307080020545407
:1008D00078407F28444438384444442838444428E5
:1008E0007F385454541800087E090218A4A49C7838
:1008F0007F0804047800447D40002040403D007F94
:100900001028440000417F40007C047804787C0873
:100910000404783844444438FC1824241818242447
:1009200018FC7C08040408485454542404043F442C
:10093000243C4040207C1C2040201C3C4030403C5B
:1009400044281028444C9090907C4464544C4400BB
:10095000083641000000770000004136080002011F
:100960000204023C2623263C1EA1A161123A40400B
:10097000207A385454555921555579412254547888
:1009800042215554784020545579400C1E52721221
:1009900039555555593954545459395554545800AA
:1009A00000457C410002457D420001457C407D12AE
:1009B00011127DF0282528F07C5455450020545410
:1009C0007C547C0A097F4932494949323A444444BB
:1009D0003A324A4848303A4141217A3A42402078F6
:1009E000009DA0A07D3D4242423D3D4040403D3CF7
:1009F00024FF2424487E4943662B2FFC2F2BFF091C
:100A000029F620C0887E090320545479410000440F
:100A10007D413048484A32384040227A007A0A0AFA
:100A2000727D0D19317D2629292F2826292929266D
:100A300030484D4020380808080808080808382FB2
:100A400010C8ACBA2F102834FA00007B000008143C
:100A50002A142222142A14085500550055AA55AA12
:100A600055AAFF55FF55FF000000FF00101010FFB2
:100A700000141414FF001010FF00FF1010F010F00D
:100A8000141414FC001414F700FF0000FF00FF14FE
:100A900014F404FC141417101F10101F101F14144A
:100AA000141F00101010F0000000001F1010101094
:100AB0001F10101010F010000000FF101010101088
:100AC00010101010FF10000000FF140000FF00FFC6
:100AD00000001F10170000FC04F414141710171462
:100AE00014F404F40000FF00F71414141414141484
:100AF000F700F7141414171410101F101F141414F7
:100B0000F4141010F010F000001F101F0000001F60
:100B100014000000FC140000F010F01010FF10FF93
:100B2000141414FF141010101F00000000F010FF28
:100B3000FFFFFFFFF0F0F0F0F0FFFFFF000000000C
:100B400000FFFF0F0F0F0F0F3844443844FC4A4A90
:100B50004A347E02020606027E027E026355494145
:100B6000633844443C04407E201E2006027E02027C
:100B700099A5E7A5991C2A492A1C4C7201724C3090
:100B80004A4D4D303048784830BC625A463D3E4967
:100B90004949007E0101017E2A2A2A2A2A44445F0B
:100BA000444440514A444040444A51400000FF01FF
:100BB00003E080FF000008086B6B0836123624360D
:100BC000060F090F06000018180000001010003072
:100BD00040FF0101001F01011E00191D1712003CFA
:100BE0003C3C3C00000000000123022304230823B6
:100BF000802301290229042908294026802640292A
:100C00008029102320234023802F402F202F102FB6
:100C1000022F012F10292029402C7DFD7DFB7DF71F
:100C20007DEF7DDF7E7F7EBF7EDF7EEF7EFD7EFE01
:100C30007DFE000100000E0D12000200007A0C7310
:100C400000220100ED0C2100210100D60C09000357
:100C50000000760C04010309045C0C18180354000E
:100C6000650065006E007300790020004D004900AA
:100C70004400490000000403090409027300020152
:100C800000C0320904000002010300000724010033
:100C900001410006240201010006240202020009AB
:100CA00024030103010201000924030204010101DC
:100CB00000090504024000000000052501010109AA
:100CC000058302400000000005250101030904011D
:100CD0000002030000000921110100012221000788
:100CE0000581034000010705020320000206C9FF39
:100CF0000904A15C7508150026FF0095400975815F
:100D00000295200976910295040976B102C012017C
:100D1000000200000040C0168504710200010001BD
:100D200001C13601C02601813601803646105311BB
:100D3000E92A721011241FBECFEFDAE0DEBFCDBF6B
:100D400011E0A0E0B1E0E2E7FAE502C005900D9203
:100D5000A439B107D9F724E0A4E9B1E001C01D929C
:100D6000A237B207E1F716E0C9E9D6E004C021973F
:100D7000FE010E94F82CC639D107C9F70E94D9227A
:100D80000C942D2D3DC90F931F93CF93DF93EC014E
:100D9000E881F9810190F081E02D09958C01CE0167
:100DA0000E949F21800F911FDF91CF911F910F9182
:100DB00008950F931F93CF93DF93EC01FB010190F4
:100DC0000020E9F73197AF01461B570BE881F98105
:100DD0000280F381E02D09958C01CE010E949F21B4
:100DE000800F911FDF91CF911F910F9108950F9365
:100DF0001F93CF93DF93EC010E944C218C01CE0115
:100E00000E949F21800F911FDF91CF911F910F9121
:100E100008950F931F93CF93DF93EC010E9432222A
:100E20008C01CE010E949F21800F911FDF91CF91F5
:100E30001F910F9108958EBD00000DB407FEFDCFE8
:100E40008EB508950F931F93CF93DF93662319F008
:100E500000E010E902C000E010E1442319F040E096
:100E600050E002C040E050E260913503662381F01B
:100E7000613051F46DB3609333037DB360913403FB
:100E8000609567236DBB04C06FB7F894609333031C
:100E90003F70402B512B8901042B152B20E52CBDD5
:100EA00021E02DBDEC01DD27FE010E94C224812F2F
:100EB000C2DF802FC0DFFE010E94BC249091350369
:100EC000992339F080913303913011F48DBB01C027
:100ED0008FBFDF91CF911F910F9108950F931F93B3
:100EE000CF93DF93EB01209729F06130710521F05A
:100EF000EDE003C0EBE001C0ECE0F0E00E94BC24B8
:100F00000FB6F8944091F5035091F6036091F70302
:100F10007091F8030FBE8E01000F111F000F111FFB
:100F2000F801ED53FD4F4083518362837383BC010D
:100F3000990F880B990B0E94942B28EA36E44CE316
:100F400052E40E94482CF801EA52FD4F2081318181
:100F5000428153810E94482C20E030E040E05FE372
:100F60000E94FE2A0E94662B51E0C130D10509F093
:100F700050E0229719F0E7E0F0E002C0E8E0F0E08E
:100F80009B0141E0652FCF01DF91CF911F910F9120
:100F900059CFBC0188E5869FD001879FB00D1124F1
:100FA00020E030E040E080E090E0F901EA0FFB1F34
:100FB000E554FE4F5081552311F0C90141E02F5FE8
:100FC0003F4F2835310589F7411188CF61157105EB
:100FD00029F06130710521F0EDE003C0EBE001C0C4
:100FE000ECE0F0E00C94C2240895BC0188E5869FF3
:100FF000D001879FB00D112427E530E040E080E06C
:1010000090E0F901EA0FFB1FE554FE4F5081552394
:1010100011F0C90141E02150310998F741115ECF2B
:101020006115710529F06130710521F0EDE003C013
:10103000EBE001C0ECE0F0E00C94C2240895CF9204
:10104000DF92EF92FF920F931F93CF93DF939C0158
:10105000FC01E656FE4FC081E0E0F0E00C2E000CF3
:10106000DD0B8AE0C82ED12C8AE0829F8001839F0D
:10107000100D112403561E4F48E5429FC001439FA7
:10108000900D1124AC0145545E4F7A01CE018E1BA8
:101090009F0BB6010E94C32C97FD0A96D801A80F9A
:1010A000B91F8C91082E000C990BD701A80FB91FFE
:1010B0004C91442351F0B901DF91CF911F910F91D1
:1010C000FF90EF90DF90CF9009CF3196EA30F10595
:1010D000E9F62115310529F02130310521F0EDE047
:1010E00003C0EBE001C0ECE0F0E00E94C224DF911D
:1010F000CF911F910F91FF90EF90DF90CF900895C7
:101100009C0185E0220F331F8A95E1F751E06130A1
:1011100011F450E002C0662319F089E090E002C0AB
:1011200088E090E041E0652F8DCEFC019B0180912D
:10113000F4029091F5020E94C32C97FF02C0820F27
:10114000931FE817F90749F48091D302882329F007
:1011500041E050E060E070E004C040E050E061E059
:1011600070E086EF92E00C945220CF92DF92EF92E3
:10117000FF92CF93DF9386EF92E00E94AD15E0914E
:10118000E202F091E302E930F10508F0DEC3EA5A29
:10119000FF4F0C94F82C8091F4029091F50263E0DB
:1011A00070E00E94C32C97FD03968093D5020CC07B
:1011B0008091F4029091F50263E070E00E94C32CEC
:1011C00097FD03968093D40240E050E060E070E029
:1011D00086EF92E00E944C2040E050E061E070E039
:1011E00086EF92E00E9452206EE072E086EF92E07D
:1011F0000E944C2140E150E060E070E086EF92E018
:101200000E944C208091E2029091E302892B29F404
:1012100065E070E080E090E088DF6FEF71E086EFDE
:1012200092E00E944C2165E071E086EF92E0C1DD22
:101230008091E2029091E302892B29F465E070E04D
:1012400081E090E072DF60EF71E086EF92E00E9453
:101250004C2161E071E086EF92E0ABDD8091E2022B
:101260009091E302892B29F465E070E082E090E040
:101270005CDF61EE71E086EF92E00E944C2180918C
:10128000E2029091E302059741F441E050E060E012
:1012900070E086EF92E00E9452204091D50250E02B
:1012A0004F5F5F4F052E000C660B770B86EF92E0C9
:1012B0000E9425226EED71E086EF92E098DD80912C
:1012C000E2029091E302892B31F465E070E083E063
:1012D00090E02BDF08C040E050E061E070E086EF76
:1012E00092E00E9452206FEC71E086EF92E00E9443
:1012F0004C218091E2029091E302069741F441E093
:1013000050E060E070E086EF92E00E945220409151
:10131000D40250E04F5F5F4F052E000C660B770B39
:1013200086EF92E00E9425226CEC71E086EF92E05D
:101330005EDD8091E2029091E302892B31F465E059
:1013400070E084E090E0F1DE08C040E050E061E051
:1013500070E086EF92E00E9452206AEB71E0E0C0FC
:101360008091F4029091F50263E070E00E94C32C3A
:1013700097FD03962091980130919901F901EB5F57
:10138000FE4F8130910521F0029721F084E503C0E2
:1013900082E401C08CE4808340E050E060E070E0D3
:1013A00086EF92E00E944C2040E050E061E070E067
:1013B00086EF92E00E94522068EA71E086EF92E0A8
:1013C0000E944C2140E150E060E070E086EF92E046
:1013D0000E944C208091E2029091E302019729F44F
:1013E00064E070E080E090E0A0DE6CE971E086EF00
:1013F00092E00E944C218091E2029091E3020297D8
:1014000071F48091980190919901892B41F441E008
:1014100050E060E070E086EF92E00E945220609120
:10142000050186EF92E0AFDC8091E2029091E30249
:10143000019731F464E070E081E090E076DE08C06E
:1014400040E050E061E070E086EF92E00E945220C0
:1014500060E971E086EF92E00E944C218091E20207
:101460009091E302029771F4809198019091990113
:10147000019741F441E050E060E070E086EF92E0D7
:101480000E9452206091060186EF92E07CDC809100
:10149000E2029091E302019731F464E070E082E0AF
:1014A00090E043DE08C040E050E061E070E086EF8D
:1014B00092E00E94522064E871E086EF92E00E9480
:1014C0004C218091E2029091E302029771F48091A5
:1014D000980190919901029741F441E050E060E059
:1014E00070E086EF92E00E9452206091070186EF43
:1014F00092E049DC8091E2029091E302019731F49D
:1015000064E070E083E090E010DE08C040E050E06E
:1015100061E070E086EF92E00E94522062E771E0A5
:1015200086EF92E064DC11C28091F4029091F502A2
:1015300062E070E00E94C32C2091980130919901E3
:10154000F901EF5FFE4F8F3F4FEF940721F00197B6
:1015500011F087E401C084E5808340E050E060E062
:1015600070E086EF92E00E944C2040E050E061E0A5
:1015700070E086EF92E00E94522061E671E086EF13
:1015800092E00E944C2140E150E060E070E086EF84
:1015900092E00E944C208091E2029091E302039736
:1015A00029F464E070E080E090E0BFDD65E571E083
:1015B00086EF92E00E944C218091E2029091E3023A
:1015C000049771F48091980190919901892B41F4CD
:1015D00041E050E060E070E086EF92E00E9452202F
:1015E0006091010186EF92E0CEDB8091E202909162
:1015F000E302039731F464E070E081E090E095DD70
:1016000008C040E050E061E070E086EF92E00E94A8
:10161000522069E471E086EF92E00E944C218091B3
:10162000E2029091E302049771F480919801909105
:101630009901019741F441E050E060E070E086EFED
:1016400092E00E9452206091020186EF92E09BDBC3
:101650008091E2029091E302039731F464E070E03C
:1016600082E090E062DD08C040E050E061E070E0C0
:1016700086EF92E00E9452206DE371E086EF92E0E7
:101680000E944C218091E2029091E302049771F450
:101690008091980190919901029741F441E050E0C6
:1016A00060E070E086EF92E00E94522060910301BA
:1016B00086EF92E068DB8091E2029091E30203976B
:1016C00031F464E070E083E090E02FDD08C040E09A
:1016D00050E061E070E086EF92E00E94522060E30B
:1016E00071E02FC12091F4023091F5028091F20255
:1016F0009091F302821793070CF5C0919801D09155
:101700009901CC0FDD1FCC0FDD1FCA52DD4FC88001
:10171000D980EA80FB802DEC3CEC4CE85FE3C7010C
:10172000B6010E94622B87FF30C02FE632E143E80A
:101730005AE3C701B6010E94FE2A23C028173907C1
:1017400024F5C0919801D0919901CC0FDD1FCC0FE9
:10175000DD1FCA52DD4FC880D980EA80FB8026E6B3
:1017600036E646E65FE3C701B6010E94442C181630
:1017700064F42FE632E143E85AE3C701B6010E9460
:10178000FD2A688379838A839B8340E050E060E090
:1017900070E086EF92E00E944C2040E050E061E073
:1017A00070E086EF92E00E9452206FE171E086EFD8
:1017B00092E00E944C2140E150E060E070E086EF52
:1017C00092E00E944C208091E2029091E302079700
:1017D00029F464E070E080E090E0A7DC63E171E070
:1017E00086EF92E00E944C218091E2029091E30208
:1017F000089771F48091980190919901892B41F497
:1018000041E050E060E070E086EF92E00E945220FC
:101810004091D6025091D7026091D8027091D902BE
:1018200023E030E086EF92E0F4DA8091E2029091DA
:10183000E302079731F464E070E081E090E075DC4A
:1018400008C040E050E061E070E086EF92E00E9466
:10185000522067E071E086EF92E00E944C21809177
:10186000E2029091E302089771F4809198019091BF
:101870009901019741F441E050E060E070E086EFAB
:1018800092E00E9452204091DA025091DB02609176
:10189000DC027091DD0223E030E086EF92E0B9DAFD
:1018A0008091E2029091E302079731F464E070E0E6
:1018B00082E090E03ADC08C040E050E061E070E097
:1018C00086EF92E00E9452206BEF70E086EF92E08C
:1018D0000E944C218091E2029091E302089771F4FA
:1018E0008091980190919901029741F441E050E074
:1018F00060E070E086EF92E00E9452204091DE02AC
:101900005091DF026091E0027091E10223E030E04B
:1019100086EF92E07EDA8091E2029091E3020797EF
:1019200031F464E070E083E090E0FFDB08C040E069
:1019300050E061E070E086EF92E00E9452206EEE8F
:1019400070E086EF92E00E944C2186EF92E0DF91FA
:10195000CF91FF90EF90DF90CF900C941E1923B1A0
:1019600081E090E0322F307225FD02C080E090E0EF
:10197000909397018093960123B131113BC08091E0
:10198000940190919501892BA9F18091D30288232C
:1019900091F08091F4029091F5029093F30280937C
:1019A000F20226FF02C0019601C001979093F50252
:1019B0008093F4020BC081E08093D3021092F50271
:1019C0001092F4021092F3021092F2020FB6F89401
:1019D0008091F5039091F603A091F703B091F8037D
:1019E0000FBE8093CF029093D002A093D102B09308
:1019F000D202BBDB80919601909197019093950163
:101A00008093940108952F923F924F925F926F922C
:101A10007F928F929F92AF92BF92CF92DF92EF927E
:101A2000FF920F931F93CF93DF93569A579A249A5E
:101A3000529A539A3E9A3F9A25982D9A80917D000A
:101A40008F7E80937D0026982E9A80917D008F7DD9
:101A500080937D0087988F9A80917E008F77809306
:101A60007E005E985F988091C200877F8093C2005D
:101A70002C985A9A5B9A469A809190008F7780931F
:101A80009000479A8091C0008F778093C0002DD33B
:101A900001E021E04CE362E086EF92E00E94CB158A
:101AA00085E0C82E81E0D82E91E0A92E91E0B92ED4
:101AB00006ED12E0C8E0D0E0E12CF12CC7010E9455
:101AC000172D782ED6018C93C70103960E94172DEF
:101AD000682EF50180831E01F4E02F0E311C4801B1
:101AE000CE010E94172DD4018D934D0121962C1605
:101AF0003D06B1F7B4E57B1649F0E2E47E1631F01D
:101B0000FCE47F1619F0E4E5D601EC93F7E46F16D8
:101B100031F084E5681619F0E7E4D501EC93D801BB
:101B20004D905D906D907C9026E636E646E65FE34C
:101B3000C301B2010E94622B87FD5CC02DEC3CEC1E
:101B40004CE85FE3C301B2010E94442C18160CF468
:101B500051C0A3019201C301B2010E94AB2C8111BB
:101B600049C0BFEFEB1AFB0AEFEFCE1ADE0AFFEF18
:101B7000AF1ABF0A0C5F1F4FE10183E0E816F104C2
:101B800009F09CCF86E090E00E94172DC82F80932B
:101B9000D50287E090E00E94172D8093D402C330D5
:101BA00010F01092D502833010F01092D40260E150
:101BB00070E084EE92E00E94802065E070E084EEA8
:101BC00092E00E94A2201092E3021092E202DF91C2
:101BD000CF911F910F91FF90EF90DF90CF90BF902A
:101BE000AF909F908F907F906F905F904F903F90BD
:101BF0002F90BBCA80E090E0A0E8BFE3F8018083AB
:101C00009183A283B383ADCFCF92DF92FF920F93E4
:101C10001F93CF93DF938091D302882309F4CFC021
:101C2000E091E202F091E302E930F10508F0DDC055
:101C3000E15AFF4F0C94F82C8091F4029091F50238
:101C400065E070E00E94C32C97FD059682309105F7
:101C500079F01CF4019749F005C08330910559F0E3
:101C6000049761F081E090E079C083E090E076C075
:101C700085E090E073C086E090E070C087E090E07F
:101C80006DC08091F4029091F50264E070E00E94D2
:101C9000C32C97FD04969093990180939801039724
:101CA00009F461C082E090E059C081E090E0909337
:101CB000E3028093E2028091980190919901FC01E6
:101CC000EB5FFE4F608135C08091F4029091F50288
:101CD00064E070E00E94C32C97FD049690939901F4
:101CE00080939801039709F43EC084E090E036C0E9
:101CF00083E090E09093E3028093E2028091980168
:101D000090919901FC01EF5FFE4F6081039611C035
:101D10001092E3021092E2026091D50286E090E018
:101D200008C01092E3021092E2026091D40287E0B0
:101D300090E00E941F2D59C08091F4029091F5020D
:101D400064E070E00E94C32C97FD04969093990183
:101D500080939801039739F088E090E09093E30234
:101D60008093E20242C01092E3021092E2023DC070
:101D700087E090E09093E3028093E202C0919801A3
:101D8000D0919901CC0FDD1FCC0FDD1F8E010A52BF
:101D90001D4F6E018CE0C80ED11C2896F801F19001
:101DA0008F01CE010E94172DF81621F06F2DCE0164
:101DB0000E941F2D2196CC15DD0581F716C00FB6A8
:101DC000F8948091F5039091F603A091F703B091F8
:101DD000F8030FBE8093CF029093D002A093D1025C
:101DE000B093D20281E08093D3021092F502109258
:101DF000F4021092F3021092F202DF91CF911F9140
:101E00000F91FF90DF90CF90B0C9EF92FF920F93A8
:101E10001F93CF93DF93A3DD84EE92E00E94A62070
:101E200084EE92E00E941A21882341F08091000103
:101E3000882319F01092000101C0E6DE8091D302E0
:101E40008823E9F00FB6F8948091F5039091F6039A
:101E5000A091F703B091F8030FBE4091CF025091CB
:101E6000D0026091D1027091D202841B950BA60B17
:101E7000B70B81329E44A105B10508F0F4C0A3EC74
:101E8000B2E0C1E0D1E080E00D911D912D913C9137
:101E90001397011511052105310531F10FB6F8949D
:101EA0004091F5035091F6036091F7037091F803A8
:101EB0000FBE401B510B620B730B45315105610581
:101EC000710590F09881943579F4882309F4D5C090
:101ED000813009F4D0C0EDE0F0E00E94C2241D92F0
:101EE0001D921D921C9213978F5F1496219683303A
:101EF00059F660E08DEF93E00E94D428882309F41E
:101F0000BEC08091FE03803959F018F4803841F04A
:101F1000B6C0803B09F48FC0803E09F47DC0AFC0DD
:101F20006091FD03615063300CF0A9C01091FF0374
:101F30001551183508F0A3C0C62F062E000CDD0B76
:101F4000E12EF12C803921F48091000481110CC024
:101F500088E58C9FF0018D9FF00D1124E554FE4F14
:101F6000EE0DFF1D108210C098E59C9FF0019D9F13
:101F7000F00D1124E554FE4FEE0DFF1D91E090830E
:101F8000082E000C990BBCD8FE01EB5FFE4F808140
:101F9000843549F4CE01DF91CF911F910F91FF90CD
:101FA000EF900C94C907823441F4CE01DF91CF91B8
:101FB0001F910F91FF90EF9018C828E52C9FC0014A
:101FC0002D9F900D112485549E4FFC01EE0DFF1D99
:101FD00080818823C9F0FE01E656FE4F8081082EDD
:101FE000000C990B01966AE070E00E94C32C80837C
:101FF0004AE04C9F90014D9F300D112423563E4FD7
:10200000F901E80FF91F1083CE01DF91CF911F91E5
:102010000F91FF90EF9013C89091D5028091FD032E
:1020200098132DC02091000480E128029001112412
:1020300040E060E00EC09091D4028091FD039813BF
:102040001EC02091000480E228029001112441E08A
:1020500061E08AE090E0DF91CF911F910F91FF90B6
:10206000EF900C9422071092D3021092E302109288
:10207000E2027BD804CFECE02FCFEBE02DCFDF9155
:10208000CF911F910F91FF90EF9008958F929F92A3
:10209000AF92BF92CF92DF92EF92FF920F9380EABE
:1020A000882E86E8982EAA24A394B12C90E8C92EF5
:1020B0009AE1D92E96E0E92EF12C01E126E333E0F6
:1020C00040E460E886EF92E0BAD384EE92E00F91AC
:1020D000FF90EF90DF90CF90BF90AF909F908F9048
:1020E0000C94702086EF92E0F5C3289A209A8CB564
:1020F00080618CBD8CB580648CBD219A229A089534
:1021000080E090E008958091620390E02091630365
:10211000821B91090895909163038091620398173F
:1021200050F4E92FF0E0EC59FC4F208130E09F5F44
:102130009093630302C02FEF3FEFC9010895E09130
:10214000630380916203E81730F4F0E0EC59FC4F30
:10215000808190E008958FEF9FEF08950895CF92CA
:10216000DF92EF92FF920F931F93CF93DF937C0147
:10217000CB018A0120913E03222389F0EB016B0100
:10218000C40ED51ECC15DD0561F06991D701ED9126
:10219000FC910190F081E02DC7010995F3CF642FE8
:1021A000F2D0C801DF91CF911F910F91FF90EF9076
:1021B000DF90CF900895CF93DF931F92CDB7DEB716
:1021C000698320913E032223C1F020913F032032F6
:1021D00030F021E0FC01228380E090E014C0809187
:1021E0004003E82FF0E0EF5BFC4F998190838F5F15
:1021F0008093400380933F0304C061E0CE010196C9
:10220000C2D081E090E00F90DF91CF910895FC0162
:10221000128288EE93E0A0E0B0E083839483A583EC
:10222000B683178283E191E09183808308951092B1
:102230006303109262031092400310923F0336C072
:102240009A01AB0160E074E284EF90E00E94D62C2A
:10225000DA01C9014097A109B109B695A7959795EB
:1022600087958093B800089581E080933E03609342
:1022700061031092400310923F030895F5CF0F932E
:10228000062F21E040913F0361E473E080916103F8
:1022900028D01092400310923F0310923E030F91FA
:1022A000089561E0ECCF86E393E0B1CF1092F103A3
:1022B00081E08093EF031092EE03599A589A84B507
:1022C0008F7D84BDE9EBF0E080818E7F808380810B
:1022D0008D7F808388E48093B80085E48093BC0080
:1022E00008950F93413208F046C09091F103911187
:1022F000FCCF32E03093F1030093EF033FEF3093D4
:1023000084031092C9034093C803562FAAECB3E08C
:10231000FB013E2F351B341718F431913D93F9CF53
:102320001092F0033091F003880F832B8093F00319
:102330008091EE03813041F41092EE038091F0031E
:102340008093BB0085EC01C085EE8093BC00222306
:1023500021F08091F1038230D1F3809184038F3F8B
:1023600079F080918403803241F08091840380333E
:1023700031F094E005C091E003C092E001C093E029
:10238000892F0F910895613298F42091F103243040
:1023900089F46093A603282FA8EAB3E0FC018E2FEE
:1023A000821B861718F481918D93F9CF80E00895F0
:1023B00081E0089582E0089585ED8093BC008091CE
:1023C000BC0084FDFCCF1092F103089585EC80934E
:1023D000BC001092F10308951F920F920FB60F9256
:1023E00011242F933F934F935F936F937F938F931A
:1023F0009F93AF93BF93EF93FF938091B900887F32
:10240000803609F49CC068F5883209F45BC090F40A
:10241000803109F454C038F4882309F4F2C08830BC
:1024200009F44DC0F1C0883109F44CC0803209F480
:102430005DC0EAC0803409F468C048F4803309F410
:1024400055C0883309F0E0C080938403A6C080356E
:1024500009F44FC0883509F45DC0883409F0D4C050
:10246000D2C0883909F4C3C0A8F4883709F467C01A
:1024700038F4883609F463C0803709F460C0C4C0FA
:10248000883809F4B4C0803909F45FC0803809F095
:10249000BBC05BC0803B09F482C038F4803A09F4C9
:1024A00066C0883A09F47BC0AFC0803C09F4A3C081
:1024B000883C09F4A0C0883B09F486C0A5C080917F
:1024C000F00310C09091C9038091C803981770F56C
:1024D000E091C90381E08E0F8093C903F0E0E653D9
:1024E000FC4F80818093BB0085EC82C08093840385
:1024F0008AC0E091C90381E08E0F8093C903809167
:10250000BB00F0E0E653FC4F80839091C9038091BB
:10251000C8036AC0E091C90381E08E0F8093C903AC
:102520008091BB00F0E0E653FC4F80838091EF0385
:10253000811169C081E08093EE0384EA5DC083E08D
:102540008093F10310928503CFCF80918503803271
:1025500008F04DC0E091850381E08E0F80938503E4
:102560008091BB00F0E0EA57FC4F8083BDCF8091A3
:102570008503803230F4E0918503F0E0EA57FC4FA8
:1025800010826091850370E0E091EA03F091EB0323
:1025900086E893E009951092850318DF35C084E042
:1025A0008093F1031092A7031092A603E091EC032D
:1025B000F091ED0309958091A603811105C081E09A
:1025C0008093A6031092A803E091A70381E08E0FE9
:1025D0008093A703F0E0E855FC4F80818093BB0017
:1025E0009091A7038091A603981708F47DCF85E802
:1025F0008093BC0009C085EC8093BC001092F1036D
:1026000003C010928403D8DEFF91EF91BF91AF9188
:102610009F918F917F916F915F914F913F912F91FA
:102620000F900FBE0F901F9018950895CF92DF92D4
:10263000EF92FF920F931F93CF93DF937C018B0157
:10264000EA01690177FDCFC00E945B2008171907D6
:102650000CF0C9C0D7FDC7C0C7010E945F20C817D2
:10266000D9070CF0C0C0C7010E9458208230A1F4E5
:10267000D70113968D919C911497FC01E01BF10BEF
:102680008F010150110915968D919C9116979C010F
:102690002C1B3D0BE90111C0833009F08FC00C27C2
:1026A0001D27CE018027912708271927D7011596C6
:1026B000CD91DC911697C81BD90B2197B1E0CB16B1
:1026C000D10439F068F1F2E0CF16D10409F44FC01B
:1026D0008AC0CE01D7FD079643E0959587954A9528
:1026E000E1F7D70113962D913C911497829FF00149
:1026F000839FF00D929FF00D11240E0F1F1F5D960A
:10270000ED91FC915E97E00FF11FC770DD2781E02E
:1027100090E001C0880FCA95EAF79081892B4CC0E0
:10272000CE01D7FD079633E0959587953A95E1F769
:10273000F70123813481829FF001839FF00D929FE6
:10274000F00D11240E0F1F1FD7015D96ED91FC9126
:102750005E97E00FF11FC770DD2781E090E001C0B8
:10276000880FCA95EAF780959081892325C0CE010C
:10277000D7FD079623E0959587952A95E1F7F70110
:1027800023813481829FF001839FF00D929FF00D91
:1027900011240E0F1F1FD7015D96ED91FC915E97DE
:1027A000E00FF11FC770DD2781E090E001C0880FC6
:1027B000CA95EAF790818927808315C0813009F096
:1027C0007DCF0C271D27C027D1270C271D27D70118
:1027D00013968D919C911497FC01E01BF10B8F01D6
:1027E000015011096BCFDF91CF911F910F91FF9095
:1027F000EF90DF90CF90089520913503222381F050
:10280000213051F42DB3209333033DB32091340391
:10281000209523232DBB04C02FB7F89420933303B6
:102820008CBD9DBD089590913503992339F0809119
:102830003303913011F48DBB08958FBF08954F92EB
:102840005F926F927F928F929F92AF92BF92CF9240
:10285000DF92EF92FF920F93CF93DF93CDB7DEB766
:102860003C01290150E070E00E94A01C85E291E04B
:10287000F30191838083128E118E4114510411F063
:10288000C20102C086E393E0F301948F838F168E1A
:10289000158E8FEF82A383A384A385A306A380E56F
:1028A00083AB14AAC5AAD6AAE7AAF0AE81AE92AEAF
:1028B000A3AEB4AEDF91CF910F91FF90EF90DF9078
:1028C000CF90BF90AF909F908F907F906F905F90D0
:1028D0004F90089525E231E0FC0131832083858DFE
:1028E000968D009711F00C94772308951F93CF9342
:1028F000DF93FC01838D948D009709F1162FEF0172
:10290000678D062E000C770BB9DC8B8D9C8DDC015E
:10291000ED91FC910190F081E02D60E009958B8DA7
:102920009C8DDC01ED91FC910190F081E02D612FF7
:1029300009958B8D9C8DDF91CF911F91B2CCA3A572
:10294000B4A59C9181A9809589238C93818D928DCA
:10295000892B31F0862FDF91CF911F910C941B07AB
:1029600028E030E080E8A7A1B0A597A5462F48232E
:1029700019F04C91942B03C04C91909594239C9307
:10298000A1A5B2A54C9190A9942B9C93A1A5B2A509
:102990004C9190A9909594239C9386952150310950
:1029A00011F7DF91CF911F9108951F93CF93DF937C
:1029B000EC01162F8B8D9C8D009731F04DA95EA9EF
:1029C0006FA978AD3DDC0EC0898D9A8D892B19F0E9
:1029D0008BA99CA911DFEDA5FEA590818AA9809500
:1029E00089238083111102C066EA01C067EACE0123
:1029F0007DDF8B8D9C8D009741F049AD5AAD6BAD5D
:102A00007CADDF91CF911F911BCCEDA5FEA59081F0
:102A10008AA9892B8083898D9A8D892B21F0DF915A
:102A2000CF911F9100CFDF91CF911F910895DF9239
:102A3000EF92FF920F931F93CF93DF93EC01D62E6B
:102A4000072F142F8B8D9C8D009709F444C06F8D38
:102A5000062E000C770B12DC8B8D9C8DDC01ED912A
:102A6000FC910190F081E02D60E00995ED2CF02EB5
:102A700001E08B8D9C8D112331F1003298F011DC37
:102A80006F8D062E000C770B8B8D9C8DF7DB8B8D5D
:102A90009C8DDC01ED91FC910190F081E02D60E0D6
:102AA000099501E08B8D9C8DF7016491DC01ED911E
:102AB000FC910190F081E02D09950F5F1150F70115
:102AC00031967F01D6CFDF91CF911F910F91FF906B
:102AD000EF90DF90E6CBEBA5FCA5908189A98095CE
:102AE00089238083E62EF72E112379F1F701849153
:102AF000298D3A8D232B39F00E941B071150C701F5
:102B000001967C01F1CF28E030E040E8EFA1F8A584
:102B10009FA5582F542319F05081952B03C0508145
:102B2000909595239083E9A5FAA5508198A9952BB6
:102B30009083E9A5FAA5508198A990959523908353
:102B400046952150310911F7D9CFDF91CF911F91CF
:102B50000F91FF90EF90DF900895FC0185819681A1
:102B60009C01295F3F4F37FF02C0295F3F4F83E041
:102B7000359527958A95E1F783819481289FA00157
:102B8000299F500D389F500D112460E070E0858D15
:102B9000968D0C94102D8F929F92AF92BF92CF92F0
:102BA000DF92EF92FF920F931F93CF93DF93EC018D
:102BB000862EB42EA22E902E8D8D9E8D892BE9F41B
:102BC0002D813E81C901079697FD079613E09595E3
:102BD00087951A95E1F72B813C81AC01429FC0019A
:102BE000439F900D529F900D11240E94DF229E8FD3
:102BF0008D8F892B11F480E070C1CE01AEDF8D8105
:102C00009E816B817C8181329105E4F0AC0140545E
:102C1000510957FF02C04F5F5F4F55954795625569
:102C2000710977FF02C06F5F7F4F75956795CC2460
:102C3000C394D12CA0E4EA2EF12C02E510E028E2A6
:102C400034E01BC0AC014052510957FF02C04F5F36
:102C50005F4F559547956357710977FF02C06F5FC6
:102C60007F4F75956795CC24C394D12C20E2E22E3A
:102C7000F12C03E710E028E432E0CE0181D688A2EF
:102C80008B8D9C8D009791F0B11007C02D813E81F6
:102C90002032310521F42CE303C02B2D01C02DE39C
:102CA0002F8F992009F416C1C2DA68C08CA10E9446
:102CB00051248DA10E9451248CA1880F990BFC01F5
:102CC000E751F44FE491F0E03296FCA7EBA7FC014A
:102CD000E851F44FE491E9AB8DA1880F990BFC0109
:102CE000E751F44FE491AE2FB0E09D012E5F3F4FCE
:102CF0003EA72DA7FC01E851F44FE491EAAB1296F0
:102D00008C911297E82B1296EC93898D9A8D892BD2
:102D100029F0992009F432C0E8D930C08AA10E9474
:102D200051248BA10E9451248AA1880F990BFC0188
:102D3000E751F44FE491F0E03296F8A7EFA3FC01DD
:102D4000E851F44FE491EFA78BA1880F990BFC0198
:102D5000E751F44FE491AE2FB0E09D012E5F3F4F5D
:102D60003AA729A7FC01E851F44FE491E8AB129689
:102D70008C911297E095E8231296EC93AA20E9F043
:102D80008EA187FD1AC00E945124EEA1F0E00E949E
:102D9000BC2461E070E080E090E00E942D26EEA16E
:102DA000F0E00E94C2246AE070E080E090E00E94BF
:102DB0002D26EEA1F0E00E94BC248B8D9C8D009707
:102DC00031F04DA95EA96FA978AD3ADA0EC0898DB0
:102DD0009A8D892B19F08BA99CA90EDDEDA5FEA576
:102DE00090818AA980958923808344E064E472E01D
:102DF000CE011DDE6D816150CE0178DD44E060E4DE
:102E000072E0CE0114DE88A1813011F460E101C0CE
:102E100064E1CE016BDD44E06CE372E0CE0107DEDD
:102E20008B819C8180389105D1F48D819E81803287
:102E3000910531F444E068E372E0CE01F8DD23C08F
:102E40008034910501F543E065E372E0CE01EFDDEA
:102E500088A1813011F46FE914C06FEC12C0803684
:102E6000910589F48D819E81409769F443E062E386
:102E700072E0CE01DCDD88A1813011F460E101C097
:102E80006FEACE0133DD69EDCE0130DD88A18130FE
:102E900011F462E201C061EFCE0128DD46E06CE290
:102EA00072E0CE01C4DD8B8D9C8D009731F049AD71
:102EB0005AAD6BAD7CADC4D90BC0EDA5FEA590811C
:102EC0008AA9892B8083898D9A8D892B09F0ABDCA7
:102ED00081E003C0A11054CF74CFDF91CF911F9137
:102EE0000F91FF90EF90DF90CF90BF90AF909F90A9
:102EF0008F9008950F931F93CF93DF93DC0157FDBD
:102F000064C015968D919C911697481759070CF03F
:102F10005CC077FF04C0260F371F60E070E0139697
:102F2000CD91DC911497CB01820F931FC817D9075D
:102F30001CF49E01261B370B121613060CF045C01D
:102F4000FA0157FD3796CF01E3E095958795EA950D
:102F5000E1F78C9FF0018D9FF00D9C9FF00D1124E7
:102F60006E0F7F1F5D96ED91FC915E97E60FF71F48
:102F70004770552781E090E001C0880F4A95EAF735
:102F8000482F0130110539F078F002301105E9F4CD
:102F90002E0F3F1F13C02E0F3F1FE217F307A9F09C
:102FA0008081842B8193F9CF80952E0F3F1FE217EC
:102FB000F30759F0908198239193F9CFE217F30723
:102FC00021F0808184278193F9CFDF91CF911F91E8
:102FD0000F910895EF92FF920F931F93CF93DF937A
:102FE000EC0177FDA5C0EB80FC806E157F050CF031
:102FF0009FC057FF04C0240F351F40E050E08D8173
:103000009E81FA01E20FF31F8E179F071CF49C01AB
:10301000241B350B121613060CF08AC0922F842F36
:103020008695869586958E9DD0018F9DB00D112435
:103030006A0F7B1FAD8DBE8DA60FB71F4770B1F114
:1030400088E0841B482F682F70E0FB01EC5DFD4F8A
:10305000E491281798F4621B71092FEF30E002C049
:10306000359527956A95E2F7E2230130110549F07D
:1030700078F00230110509F05BC00EC00130110577
:1030800019F48C91E82B0AC00130110508F049C0F1
:10309000E0958C91E82302C08C91E827EC9394177B
:1030A00008F446C02B813C81A20FB31FE92FE41B1B
:1030B000E830F8F00230110561F48E2F9C91909564
:1030C0009C932B813C81A20FB31F88508830B0F7AE
:1030D0000FC081E00115110509F480E081959E2F54
:1030E0008C932B813C81A20FB31F98509830C0F76E
:1030F000E770EE23E9F0F0E0E45EFD4FE49101308B
:10310000110539F048F00230110591F48C91E8274F
:1031100006C08C91E82B03C0E0958C91E823EC93DA
:1031200007C00230110509F4B7CFAE0DBF1DBECFE9
:10313000DF91CF911F910F91FF90EF9008950F9322
:103140001F93DC015496EC915497E23061F0E33028
:1031500009F1E13079F51396ED91FC911497E41B98
:10316000F50B319723C0DC011396ED91FC91149778
:10317000DF01A61BB70BBD01DC011596ED91FC919B
:103180001697DF01A41BB50BAD0141505109621B1D
:10319000730B10C0FA01DC0115964D915C911697E6
:1031A000DA01A61BB70BBD01621B730BAB01BF019C
:1031B00011DF01C09FDE1F910F9108950F931F93A0
:1031C000DC015496EC915497E23069F0E33011F150
:1031D000E13081F51396ED91FC911497E41BF50B0A
:1031E000E21BF30B23C0DC011396ED91FC911497C5
:1031F000DF01A61BB70BBD0161507109DC011596FB
:10320000ED91FC911697DF01A41BB50BAD01421B9C
:10321000530B10C0FA01DC0115964D915C91169785
:10322000DA01A61BB70BBD0161507109AB01BF01EB
:1032300061DE01C0CFDE1F910F910895CF92DF9222
:10324000EF92FF920F931F93CF93DF93EC018B8D3F
:103250009C8D009739F04DA95EA96FA978AD0E94A9
:1032600020110EC0898D9A8D892B19F08BA99CA9EC
:10327000C3DAEDA5FEA590818AA980958923808374
:1032800045E067E172E0CE01D2DB6B816150CE0197
:103290002DDB2D813E81C901079697FD079623E01E
:1032A000959587952A95E1F72B813C81829F700146
:1032B000839FF00C929FF00C11240D8D1E8D8B8D31
:1032C0009C8DE00EF11E009709F43FC06F8D062E15
:1032D000000C770B0E943E118B8D9C8DDC01ED91D3
:1032E000FC910190F081E02D60E40995680111E006
:1032F0008B8D9C8DEC14FD0429F11032A8F00E94F6
:1033000051116F8D062E000C770B8B8D9C8D0E94BA
:103310003E118B8D9C8DDC01ED91FC910190F08133
:10332000E02D60E4099511E08B8D9C8DF601619193
:103330006F01DC01ED91FC910190F081E02D099588
:103340001F5FD6CF0E94511135C0EBA5FCA590811F
:1033500089A9892B80830E151F0561F1F8018191E0
:103360008F01298D3A8D232B19F00E941B07F3CF73
:1033700028E030E040E8EFA1F8A59FA5582F54239E
:1033800019F05081952B03C050819095952390831F
:10339000E9A5FAA5508198A9952B9083E9A5FAA5EE
:1033A000508198A990959523908346952150310995
:1033B00011F7D1CF8B8D9C8D009771F049AD5AAD2F
:1033C0006BAD7CADDF91CF911F910F91FF90EF908E
:1033D000DF90CF900C942011EDA5FEA590818AA9D5
:1033E000892B8083898D9A8D892B49F0DF91CF912C
:1033F0001F910F91FF90EF90DF90CF9014CADF9153
:10340000CF911F910F91FF90EF90DF90CF90089593
:103410002F923F924F925F926F927F928F929F92E4
:10342000AF92BF92CF92DF92EF92FF920F931F93D2
:10343000CF93DF9300D000D000D0CDB7DEB72C0102
:103440007E836D836A015901C801FC82EB824801C9
:10345000841A950A97FE03C09194819491083501CE
:103460002D813E81621A730A77FE03C071946194C4
:103470007108681479045CF43A2D2B2D5C01832FBC
:10348000922F3D812E81DE82CD82C32ED22EAD8140
:10349000BE81AA16BB065CF43C2D2D2D6C01832F3A
:1034A000922F3D812E81BE82AD82A32EB22E850148
:1034B0002D813E81021B130B1C012C183D0837FE89
:1034C00003C0319421943108780117FF03C03FEF06
:1034D000E31AF30AF594E794C816D9062CF08FEF97
:1034E0009FEF9A83898304C0A1E0B0E0BA83A983E7
:1034F0002D813E81A216B30624F1D201ED91FC91FB
:103500000484F585E02D2B813C816814790424F432
:103510004D815E81B60103C0A6016D817E81C2012D
:103520000995E218F308F7FE06C029813A81C20E18
:10353000D31EE00EF11E8D819E8101969E838D83A8
:10354000D7CF26960FB6F894DEBF0FBECDBFDF9162
:10355000CF911F910F91FF90EF90DF90CF90BF9090
:10356000AF909F908F907F906F905F904F903F9023
:103570002F900895DC01ED91FC910084F185E02D00
:1035800009940F931F93DC01ED91FC91048CF58D50
:10359000E02D09951F910F9108950F931F93DC0162
:1035A000ED91FC91068CF78DE02D09951F910F91FF
:1035B0000895EF92FF920F931F93DC01ED91FC9120
:1035C00000A0F1A1E02D09951F910F91FF90EF90C0
:1035D000089508958F929F92AF92BF92CF92DF92FB
:1035E000EF92FF920F931F93CF93DF93EC015B0158
:1035F0004A0169017801E881F9810284F385E02DAF
:103600000995C80CD91C860101501109E881F9817E
:103610000488F589E02D9501A401B501CE01099535
:10362000E881F9810688F789E02DCE01DF91CF91FD
:103630001F910F91FF90EF90DF90CF90BF90AF90D0
:103640009F908F9009948F929F92AF92BF92CF924A
:10365000DF92EF92FF920F931F93CF93DF93EC01D2
:103660005B014A016901E881F9810284F385E02D5B
:10367000099595012C0D3D1D21503109E881F981F5
:103680000488F589E02D78018401A401B501CE01FB
:103690000995E881F9810688F789E02DCE01DF914F
:1036A000CF911F910F91FF90EF90DF90CF90BF903F
:1036B000AF909F908F9009944F925F926F927F92FC
:1036C0008F929F92AF92BF92CF92DF92EF92FF9232
:1036D0000F931F93CF93DF936C012B015A01390194
:1036E0004801DC01ED91FC910284F385E02D099500
:1036F000E201640C751CD601ED91FC91C615D7054D
:103700005CF40088F189E02D87019401A501BE01D8
:10371000C60109952196EFCF0688F789E02DC601ED
:10372000DF91CF911F910F91FF90EF90DF90CF909D
:10373000BF90AF909F908F907F906F905F904F90D1
:103740000994EF92FF920F931F93DC0119960D914C
:103750001C911A9717962D913C911897ED91FC9119
:1037600000A0F1A1E02D7B0140E050E060E070E0BE
:1037700009951F910F91FF90EF9008958F929F925E
:10378000AF92BF92CF92DF92EF92FF920F931F936F
:10379000CF93DF934C016B015A01E901DC01ED91FC
:1037A000FC916217730781F40417150724F48B2D1D
:1037B0005801042F182F0A191B0998012F5F3F4F3A
:1037C000048CF58DE02D12C04017510709F526171E
:1037D000370724F48D2D6901C62FD82F9E012C198F
:1037E0003D092F5F3F4F068CF78DE02D8701A50126
:1037F000B601C4010995DF91CF911F910F91FF9000
:10380000EF90DF90CF90BF90AF909F908F900895F2
:103810000284F385E02D0995D401ED91FC91048893
:10382000F589E02D9E01A501B601C4010995D401D9
:10383000ED91FC910688F789E02DC401DF91CF91CD
:103840001F910F91FF90EF90DF90CF90BF90AF90BE
:103850009F908F9009946F927F928F929F92AF92D8
:10386000BF92CF92DF92EF92FF920F931F93CF936D
:10387000DF93EC014B015A0169013801E881F981BC
:103880000284F385E02D0995E881F9810288F389A6
:10389000E02D87019601A501B401CE010995A5018E
:1038A000460D571D41505109E881F9810288F3897D
:1038B000E02D9601B401CE010995E881F9810088D7
:1038C000F189E02D9301A501B401CE010995C80C41
:1038D000D91CB60161507109E881F9810088F1892C
:1038E000E02D9301A501CE010995E881F9810688B3
:1038F000F789E02DCE01DF91CF911F910F91FF90BD
:10390000EF90DF90CF90BF90AF909F908F907F907F
:103910006F9009940895FC016370648B8381948196
:1039200025813681613039F0633029F090878783B3
:10393000328721870895308727839287818708956A
:10394000FC01128281E591E091838083748363831B
:10395000568345837087678352874187148A14860C
:1039600013861686158681E0838B2FEF3FEF328B0F
:10397000218B308B2787858B168A108E178A0895A6
:103980003F924F925F926F927F928F929F92AF92EF
:10399000BF92CF92DF92EF92FF920F931F93CF933C
:1039A000DF93CDB7DEB72A970FB6F894DEBF0FBE10
:1039B000CDBF5C017E836D8358874F83290137011A
:1039C000DC01ED91FC910284F385E02D0995C8019D
:1039D000079697FD07969C0193E0359527959A9554
:1039E000E1F73A832983812C912CE12CF12C312CA5
:1039F0008F8198858E0D9F1D9C838B83E614F70421
:103A00000CF03DC01A861986A985BA85A017B107A2
:103A100074F5CD0187709927892B11F0330C0EC0F6
:103A2000E985FA85F7FD379683E0F595E7958A9560
:103A3000E1F7E80DF91DE40DF51D349037FE11C0D6
:103A4000D501ED91FC910484F585E02D96014B8123
:103A50005C816D817E8189859A85680F791FC5019A
:103A60000995A985BA851196BA87A987CDCFBFEFE9
:103A7000EB1AFB0A29813A81820E931EB9CFD50138
:103A8000ED91FC910688F789E02DC5012A960FB6C5
:103A9000F894DEBF0FBECDBFDF91CF911F910F9184
:103AA000FF90EF90DF90CF90BF90AF909F908F905E
:103AB0007F906F905F904F903F9009942F923F922C
:103AC0004F925F926F927F928F929F92AF92BF922E
:103AD000CF92DF92EF92FF920F931F93CF93DF93DA
:103AE000CDB7DEB76B970FB6F894DEBF0FBECDBF74
:103AF0009B8F8A8F5B011A01D22E1F830E833701A1
:103B0000C982DC0157962D913C91589721153105BA
:103B100009F0E6C017968D919C9118976817790760
:103B20000CF0CDC119968D919C911A9748175907A1
:103B30000CF0C5C18C2C912CFB0126E0C29EE00D3F
:103B4000F11D1124FB87EA871E161F060CF0B7C172
:103B5000A40183E0440F551F8A95E1F75D874C87E8
:103B6000CA01820D931D181619060CF0A8C15696AD
:103B70008C91811104C05FEA5D1508F4D394AA8D7D
:103B8000BB8DED91FC9111970284F385E02DCD0161
:103B90000995B5E0DB9EC0011124F5013596FF873C
:103BA000EE872501BB82AA829C012A193B09398B29
:103BB000288BA101485F5F4F5B8B4A8BE889F989AD
:103BC000E40DF51DE851F94F549158873D822C8240
:103BD0006101888580FF13C0AA8DBB8DED91FC919A
:103BE000B981B13031F40484F585E02D2E813F8117
:103BF00016C00684F785E02DEE80FF801AC0EE81A6
:103C0000FF81E615F705F1F0AA8DBB8DED91FC91D2
:103C1000B981B13051F40484F585E02D9301A601FA
:103C2000B2018A8D9B8D09950DC00684F785E02D24
:103C30007301840194014C815D816A817B818A8D4D
:103C40009B8D0995E885E695E8872C813D81280DB7
:103C5000391D3D832C833FEFC31AD30A4A895B8900
:103C6000C416D50609F0B5CF8A819B81880D991DB0
:103C70009B838A839FEF491A590AAE85BF854A16EE
:103C80005B0609F09BCFEE81FF81E615F70509F48D
:103C9000F4C0EA8DFB8DA081B181F981F13079F416
:103CA000B5016B5F7F4F5096ED91FC915197830169
:103CB00028E030E0A1018A8D9B8D0995DEC06A85E0
:103CC0007B85681979091E96ED91FC911F97730108
:103CD0000C851D859401A1018A8D9B8D0995CDC010
:103CE000F9013496E491DE1AF901329685919491A6
:103CF000B7E0DB9E800D911D1124F90125913491CF
:103D00003B8B2A8BFC01259134912901FC013296D1
:103D1000C490319634913C87329614913196D49068
:103D20004981423058F0612E012E000C77088D2D0C
:103D30000D2C000C990B9987888704C0198618866A
:103D4000612C712CAA8DBB8DED91FC911197028491
:103D5000F385E02DCD010995B9818B2E912C689CBE
:103D6000C001699C900D789C900D1124FC01EA0D16
:103D7000FB1DF98BE88B1A82712C612CE12F110F3E
:103D8000FF0B95012E0F3F1F3B872A87AC0CB11C00
:103D9000A5014E0F5F1F5F8B4E8BC1018D0D911DD5
:103DA000D7FC9A95998F888F9C85691608F065C015
:103DB000862D90E048855985480F591F489D9001F0
:103DC000499D300D589D300D1124D101A20FB31F14
:103DD000BF87AE87AA84BB84E889F989FD83EC8319
:103DE000DA80FA85DF1A288D398D280F391F3D8B2F
:103DF0002C8B8D2D8A0D4E895F89A416B506C1F1D5
:103E0000877041F4C2010196EA89FB89E40DF51D32
:103E100074902C0177FE21C0AA8DBB8DED91FC9191
:103E2000B981B13061F40484F585E02D2E813F81A4
:103E30004C895D89B5018A8D9B8D09950EC00684DC
:103E4000F785E02DEE80FF80840194014E855F852B
:103E50006C817D818A8D9B8D0995770CEC81FD812C
:103E6000E80DF91DFD83EC83FFEFAF1ABF0AC1CF48
:103E70002A812C0D2A83639497CFAA8DBB8DED9157
:103E8000FC9111970688F789E02DCD016B960FB64E
:103E9000F894DEBF0FBECDBFDF91CF911F910F9180
:103EA000FF90EF90DF90CF90BF90AF909F908F905A
:103EB0007F906F905F904F903F902F9009946B96FA
:103EC0000FB6F894DEBF0FBECDBFDF91CF911F912B
:103ED0000F91FF90EF90DF90CF90BF90AF909F90A9
:103EE0008F907F906F905F904F903F902F900895AC
:103EF000AF92BF92CF92EF92FF920F931F93CF9307
:103F0000DF93EC01262F8F89988D009709F03FC031
:103F10006A3059F41C861B862B898D859E8538E076
:103F2000239F800D911D112440C06D3009F4A8C05D
:103F30008D898823C1F03B898B859C8546E0349F21
:103F4000800D911D11244F815885481759075CF445
:103F50001C861B868D859E8548E0349F800D911DB3
:103F600011249E878D87E988FA880F8518894D85E9
:103F70005E856B857C85CB88CE01A0DD2B898B850A
:103F80009C8536E0239F800D911D112442C06A302C
:103F900079F41C861B862B89FC013696E4918D856D
:103FA0009E852E9F800D911D11249E878D8768C050
:103FB0006D3009F465C0FC0134963491631708F440
:103FC0005FC03196E491E61708F45AC0FC013296BE
:103FD00065917491422F50E0431B510937E0349FA3
:103FE0005001359FB00C1124A60EB71EF501329674
:103FF00034913196E491332311F0E1110DC0F501B4
:104000003496E4912B898B859C85E29F800D911DD0
:1040100011249C878B8734C0F501359644915D89C6
:10402000552311F16B89E32FF0E0E40FF11D47FDFB
:10403000FA956E9FD0016F9FB00D11244B855C8562
:104040004A0F5B1FEF81F885E417F5076CF41C86B7
:104050001B86FC013696E4918D859E856E9F800DB2
:10406000911D11249E878D87E988FA880F8518890C
:104070004D855E856B857C85CB88CE011FDDBFCFEE
:1040800081E090E0DF91CF911F910F91FF90EF9031
:10409000CF90BF90AF900895FC01748763875687D7
:1040A00045870895FC01708B6787528B418B08957B
:1040B000FC0184890895FC01878190850895FC01A5
:1040C000818592850895DC011996EC91F0E0EDD49C
:1040D00081E0E11101C080E00895862F642F45C47E
:1040E000FC018DE791E09183808312821382148218
:1040F00015828AE090E09783868310861186089562
:10410000CF93DF93EC0169871886E881F9810190EC
:10411000F081E02D0995882319F0888583608887D0
:104120000FB6F8948091F5039091F603A091F703F0
:10413000B091F8030FBE8A839B83AC83BD83DF916C
:10414000CF910895FC017783668308950F931F93A1
:10415000CF93DF93EC0188858B7F8887E881F98195
:104160000190F081E02DCE010995982F888581FB83
:10417000222720F9921799F00FB6F8944091F50391
:104180005091F6036091F7037091F8030FBE4A83D4
:104190005B836C837D8392E08927888742C00FB65A
:1041A000F8940091F5031091F6032091F7033091F4
:1041B000F8030FBE4A815B816C817D81041B150B66
:1041C000260B370B4E815F8160E070E00417150706
:1041D0002607370730F1282F2170921711F10FB6FB
:1041E000F8944091F5035091F6036091F7037091B4
:1041F000F8030FBE4A835B836C837D8391E089273C
:10420000846088870FB6F8948091F5039091F60347
:10421000A091F703B091F8030FBE8A879B87AC8704
:10422000BD87888582FB882780F9DF91CF911F9118
:104230000F910895FC01808580FD04C082FB8827D2
:1042400080F9089580E00895CF92DF92EF92FF9277
:104250000F931F93CF93DF936C01EB017B01E40E6F
:10426000F51E00E010E0CE15DF0561F06991D60182
:10427000ED91FC910190F081E02DC6010995080FA8
:10428000191FF1CFC801DF91CF911F910F91FF90BE
:10429000EF90DF90CF9008958F929F92AF92BF9250
:1042A000CF92DF92EF92FF920F931F93CF93DF9302
:1042B000CDB7DEB7A0970FB6F894DEBF0FBECDBF67
:1042C0004C016B01CB010E94072D7C01A12CB12C6C
:1042D000E114F10401F1870181E2E816F10410F024
:1042E00000E210E0A801B601CE0101960E94FE2C6A
:1042F000C00ED11EE01AF10AD401ED91FC910280AA
:10430000F381E02DA801BE016F5F7F4FC4010995C5
:10431000A80EB91EDDCFC501A0960FB6F894DEBF7A
:104320000FBECDBFDF91CF911F910F91FF90EF9006
:10433000DF90CF90BF90AF909F908F900895CF93D4
:10434000DF9300D0CDB7DEB72DE029832AE02A83A2
:10435000DC01ED91FC910280F381E02D42E050E020
:10436000BE016F5F7F4F09950F900F90DF91CF9146
:104370000895EF92FF920F931F93CF93DF93CDB7E2
:10438000DEB72B970FB6F894DEBF0FBECDBFA22FBE
:104390007E012CE0E20EF11C8A019B01E3E30E9FFB
:1043A00000270E0E011DF02D1E9F1127000D111D5F
:1043B0002E9F2227100D211D3E9F3327200D311DDA
:1043C0001124F00F011F121F231F311DF10F021FB7
:1043D000131F211D311DF30F011D111D211D311D45
:1043E0003695279517950795F795EAE0FE9FF12DED
:1043F0001124B901A80130E33F0FF70132937F0187
:10440000411551056105710509F0C6CFAA2319F0C0
:104410002DE222937F01AE014E195F09445F5F4F89
:10442000DC01ED91FC910280F381E02DB70109954B
:104430002B960FB6F894DEBF0FBECDBFDF91CF91A4
:104440001F910F91FF90EF90089577FF09C070952D
:104450006095509541955F4F6F4F7F4F21E001C0B0
:1044600020E087CF4F925F926F927F928F929F92C0
:10447000AF92BF92CF92DF92EF92FF920F931F9372
:10448000CF93DF93CDB7DEB728970FB6F894DEBF92
:104490000FBECDBF7C012A013B01D22E20E030E0CF
:1044A000A901C301B2010E94622B87FF06C077FAFF
:1044B000709477F8709401E001C000E010E060E0D3
:1044C00070E080E09FE31D1541F02DEC3CEC4CECDE
:1044D0005DE30E94482C1F5FF6CF9B01AC01C30136
:1044E000B2010E94FE2A2B013C010E94662B4B0167
:1044F0005C01202FAB01BC01C7013BDF6C01112324
:1045000009F43FC0C501B4010E94922B9B01AC018C
:10451000C301B2010E94FD2A2EE22983183008F05F
:1045200017E05E0122E0A20EB11C012F0150D8F06D
:1045300020E030E040E251E40E94482C2B013C0195
:104540000E94662B80E3860FD5018D935D0170E09C
:1045500080E090E00E94942B9B01AC01C301B2016A
:104560000E94FD2AE3CF41E0410F50E0D701ED91D9
:10457000FC910280F381E02DBE016F5F7F4FC70188
:104580000995C60128960FB6F894DEBF0FBECDBFC1
:10459000DF91CF911F910F91FF90EF90DF90CF901F
:1045A000BF90AF909F908F907F906F905F904F9053
:1045B000089548D10E94030D0E94050FFDCF0F936F
:1045C0001F93CF93DF938230910510F482E090E047
:1045D000E0917004F091710420E030E0A0E0B0E0E0
:1045E000309719F140815181028113814817590791
:1045F000C8F08417950769F4109731F012960C9360
:10460000129713961C9327C00093700410937104A3
:1046100022C02115310519F04217530718F49A01E9
:10462000BD01EF01DF01F801DBCF21153105F9F004
:10463000281B390B2430310580F48A819B81611558
:10464000710521F0FB019383828304C09093710470
:1046500080937004FE01329644C0FE01E20FF31F06
:104660008193919322503109398328833AC0209154
:10467000F2033091F303232B41F420910B0130918D
:104680000C013093F3032093F20320910901309140
:104690000A012115310541F42DB73EB740910D01B6
:1046A00050910E01241B350BE091F203F091F303BE
:1046B000E217F307A0F42E1B3F0B2817390778F0F9
:1046C000AC014E5F5F4F2417350748F04E0F5F1F58
:1046D0005093F3034093F2038193919302C0E0E07F
:1046E000F0E0CF01DF91CF911F910F910895CF930B
:1046F000DF93009709F481C0FC0132971382128284
:10470000A0917004B0917104109781F420813181DF
:10471000820F931F2091F2033091F303281739077A
:1047200051F5F093F303E093F20367C0ED0120E04D
:1047300030E0CE17DF0740F44A815B819E014115CE
:104740005105F1F0EA01F5CFD383C2834081518155
:10475000840F951FC817D90759F488819981840F50
:10476000951F0296918380838A819B8193838283A4
:104770002115310529F4F0937104E09370043DC0D4
:10478000E901FB83EA8349915991C40FD51FEC17C6
:10479000FD0761F480819181840F951F0296E901E4
:1047A00099838883828193819B838A83E0E0F0E010
:1047B00012968D919C911397009719F0FD01DC01E1
:1047C000F7CF8D919C9111979D012E5F3F4F820FE6
:1047D000931F2091F2033091F3032817390769F4EE
:1047E000309729F4109271041092700402C0138261
:1047F0001282B093F303A093F203DF91CF91089557
:1048000008951DBA109268001CBC10BE1FBA109209
:104810007A0010926E0010926F0010927100109248
:1048200072001092C900ECEBF0E0108214B817B8D7
:104830001AB81DB810BA108215B818B81BB81EB82F
:1048400011BA0895F894E1E6F0E020E820831082A0
:1048500083E084BD85BDEEE6F0E0808181608083E9
:1048600081E08093800092E090938100809390009B
:10487000909391009093C00094E09093C100809336
:10488000C2008093C3001092C40086E880937A002F
:1048900020937B0010927E0010927D001DD27894B0
:1048A0000895893170F4E8EEFBE0880FE80FF11D00
:1048B0002591E491F0E09FB7F8948181822B818368
:1048C0009FBF0895893138F595EF980F9C3048F4D3
:1048D000EAE1FCE0990FE90FF11DA591B0E0959197
:1048E00003C09FEFA0E0B0E0E8EEFBE0880FE80F28
:1048F000F11D2591E491F0E04FB7F8943181822FBA
:104900008095232F28232183228182238283EC9187
:104910009E239C934FBF0895893130F595EF980FF2
:104920009C3048F4EAE1FCE0990FE90FF11DA591F4
:10493000B0E0959103C09FEFA0E0B0E0E8EEFBE0AF
:10494000880FE80FF11D3591E491F0E04FB7F8942E
:104950002181832F8095282321838281832B828349
:10496000EC919E239C934FBF0895613009F499CF39
:10497000623009F4D1CFA6CFE93150F4EE0FE753FE
:10498000FB4D0994E93120F4EE0FE550FB4D0994FD
:104990000895289A0895299A08952A9A08952B9A95
:1049A00008952F9A6AC0589A58C0599A08955A9AE9
:1049B00008955B9A0895469A66C0479A6AC05E9ABF
:1049C00008955F9A6CC02C9A08952D9A4AC02E9A29
:1049D0004EC08F9A08958E9A08958D9A08958C9A54
:1049E0000895899A0895889A08955C9A08955D9A21
:1049F0000895769A089528980895299808952A98F0
:104A000008952B9808952F9838C0589826C0599823
:104A100008955A9808955B980895469834C0479829
:104A200038C05E9808955F983AC02C9808952D98E4
:104A300018C02E981CC08F9808958E9808958D9850
:104A400008958C98089589980895889808955C9899
:104A500008955D98089576980895E4B5EF7DE4BDD6
:104A60000895E0918000EF77E09380000895E09151
:104A70008000EF7DE09380000895E0918000E77F63
:104A8000E09380000895E0919000EF77E09390002C
:104A90000895E091C000EF77E093C0000895E091A1
:104AA000C200E77FE093C2000895E93130F4EE0FD1
:104AB000EE0FFF27EF59FA4D0994EE270895E1E034
:104AC0000895E3B1E170D9F70895E3B1E270B9F761
:104AD0000895E3B1E47099F70895E3B1E87079F7C8
:104AE0000895E3B1E07859F70895E9B1E17039F735
:104AF0000895E9B1E27019F70895E9B1E470F9F6A3
:104B00000895E9B1E870D9F60895E6B1E074B9F610
:104B10000895E6B1E07899F60895E9B1E07479F680
:104B20000895E9B1E07859F60895E3B1E07139F6F6
:104B30000895E3B1E07219F60895E3B1E07429F540
:104B40000895EFB1E07809F50895EFB1E074E9F464
:104B50000895EFB1E072C9F40895EFB1E071A9F4DE
:104B60000895EFB1E27089F40895EFB1E17069F44E
:104B70000895E9B1E07149F40895E9B1E07229F4CA
:104B80000895ECB1E07409F40895E1E00895F89413
:104B900084B7877F84BF80916000806180936000CC
:104BA0001092600080E29EE40197F1F781E080932B
:104BB000E00080E28093D80080E69AEE0197F1F75A
:104BC00020DE0C94003FFFCFF8941BDE80E69AEEC7
:104BD0000197F1F70C940000FFCF8F938FB78F935D
:104BE0008091F4038D5F8D37D0F48093F40380912E
:104BF000F5038F5F8093F503D8F08091F6038F4F14
:104C00008093F603A8F08091F7038F4F8093F7030A
:104C100078F08091F8038F4F8093F80309C08D5787
:104C20008093F4038091F5038E5F8093F50328F75A
:104C30008091F9038C5F8093F90358F08091FA0317
:104C40008F4F8093FA0328F08091FB038F4F80935E
:104C5000FB038F918FBF8F911895CF92DF92EF92C8
:104C6000FF926B017C0119D09B01C114D104E104B6
:104C7000F10471F012D0621B730B683E7340A8F30D
:104C800081E0C81AD108E108F10828513C4FEDCF66
:104C9000FF90EF90DF90CF9008950FB6F89466B52F
:104CA00015B27091F9038091FA039091FB030FBE46
:104CB00010FE05C06F3F19F07C5F8F4F9F4F11248E
:104CC0000024660F001C660F001C70290895809157
:104CD000E80080FFFCCF08958091D80087FF02C0D4
:104CE00085FF1BC081E08093D70080EA8093D800C5
:104CF00082E189BD09B400FEFDCF80E98093D80030
:104D00001092E000109274041092730410927204D6
:104D10001092E1008CE08093E20008951F920F92C0
:104D20000FB60F9211248F939F939091E1001092F0
:104D3000E10093FF0FC01092E90081E08093EB0047
:104D40001092EC0082E38093ED0088E08093F00005
:104D50001092740492FF24C080917404882301F19E
:104D600080917204882391F08150809372048111A4
:104D70000DC081E08093E9008091E80085FF03C0C9
:104D80001092F100F9CF8AE38093E80083E08093EA
:104D9000E9008091F200882319F08AE38093E8000B
:104DA00090FF0CC080E18093E2001092740481E0D7
:104DB0008093730480EA8093D80019BC80917304B7
:104DC000882379F094FF0DC082E189BD09B400FE0B
:104DD000FDCF80E98093D8008DE08093E2001092AF
:104DE00073049F918F910F900FBE0F901F90189595
:104DF0001F920F920FB60F921124FF920F931F93E1
:104E00002F933F934F935F936F937F938F939F93D2
:104E1000AF93BF93CF93DF93EF93FF931092E9008B
:104E20008091E80083FFFCC0F090F1008091F100D8
:104E3000C091F100D091F1000091F1001091F100CA
:104E40002091F1003091F10092EF9093E8008630CC
:104E500009F03FC086E0E2E3FCE045915591C417BC
:104E6000D50711F0359615C04591559104171507D2
:104E700011F033960EC04591559184912F3F310525
:104E800019F010F02FEF30E0281708F4822F3EEFD2
:104E900008C0815011F7C4C0891B3093E8008823F3
:104EA000A9F09091E800292F2570D9F392FDE6C072
:104EB000982F813408F090E4292F222369F3FA0116
:104EC00045914093F100AF012150F7CF903449F361
:104ED000D5C0853041F48EEF8093E800F8DEC068DD
:104EE000C093E300CBC08930F1F4F11093C0C093BC
:104EF0007404109272048EEF8093E80081E0E0E287
:104F0000FDE08093E90095919093EB00992331F0B7
:104F100095919093EC0095919093ED008F5F853083
:104F200081F78EE145C0883049F490E8F91278C0E5
:104F3000CEDE809174048093F10015C0811117C0FA
:104F4000C6DE82E8F8120AC00093E9008091EB0007
:104F500085FB882780F91092E90001C080E08093EA
:104F6000F1001092F1008EEF8093E80087C0982F37
:104F70009D7F913009F044C092E0F9121EC0CD2B04
:104F8000E1F4402F4F779FEF940F9630B0F49EEFEF
:104F90009093E8004093E900833009F441C089E12F
:104FA0008093EB0081E090E001C0880F4A95EAF71A
:104FB0008093EA001092EA0061C00130110501F50A
:104FC0008130F1F481EAF8122BC03EEF8091E800C5
:104FD000982F9570D9F382FD51C0822F213408F0AB
:104FE00080E4982F992321F01092F1009150FACF8C
:104FF000281B3093E8002111E9CF803439F33EC0FB
:10500000893C71F490E4F9120BC08EEF8093E800B4
:105010005EDEDADD0130110519F491E2F91621F0B6
:1050200081E28093EB002AC0C115D340C9F7243038
:105030003105B1F78091E80082FFFCCF3091F1009B
:105040002091F1009091F1008091F1004BEF40939D
:10505000E8004EEF4093E800393A39F4253401F77F
:10506000923CF1F68B36E1F692DD3B38C9F6253CF1
:10507000B9F69D31A9F6803799F6CBCFFF91EF9124
:10508000DF91CF91BF91AF919F918F917F916F9160
:105090005F914F913F912F911F910F91FF900F9032
:1050A0000FBE0F901F90189580917404882371F0A3
:1050B0008FB7F89492E09093E9009BE62091E80086
:1050C00025FF03C09093E800F9CF8FBF10926F04C3
:1050D0000895FC0180917404882369F19FB7F894C6
:1050E00081E08093E9002091E400275E3091E800A0
:1050F00035FD0EC09FBF9091E4002917E1F090911B
:1051000074049923C1F09FB7F8948093E900EECF1F
:105110006093F1008091E80085FD06C08AE38093EA
:10512000E8001092720403C084E0809372049FBF71
:1051300081E090E0089581E0828380E090E008952E
:10514000FF920F931F93CF93DF93EC01F62EFC0198
:10515000E05BFF4F0190F081E02D8C01005C1F4F60
:10516000309761F0D8016D917C916C33710530F00E
:1051700040E004960995F80111821082D8018D91C2
:105180009C9111978C33910548F49C012F5F3F4F00
:105190002D933C93FE01E80FF91FF482DF91CF912C
:1051A0001F910F91FF900895DF92EF92FF920F935E
:1051B0001F93CF93DF93EC019FB7F8948091740411
:1051C000811102C09FBFAAC184E08093E9008BE6F1
:1051D0002091E80025FD07C022FF03C08093E8006E
:1051E000F7CF9FBF9AC11091F1000091F100F090AC
:1051F000F100D090F1008091E80085FD03C08BE6BE
:105200008093E8009FBF1F70802F8F70EE24E3947F
:10521000E80E88EF810F873008F07EC0662311F01A
:10522000E6127BC1602F607F183041F4603809F0CE
:1052300074C16983FE01EE5BFF4F2FC01930D1F4BA
:10524000603909F06AC1DD2029F06983FE01EC5B59
:10525000FF4F23C080E88983FE01EE5BFF4F019082
:10526000F081E02D309709F453C040E06F2D8E2D72
:1052700009954EC01A3041F4603A09F04EC1698375
:10528000FE01EA5BFF4F09C01B3071F4603B09F07F
:1052900044C16983FE01E85BFF4F0190F081E02D7E
:1052A0003097B1F14D2DE2CF1C3041F4603C09F054
:1052B00034C16983FE01E65BFF4F09C01D3081F4F4
:1052C000603D09F02AC16983FE01E45BFF4F019054
:1052D000F081E02D3097E1F06F2D8E2D099518C0EB
:1052E000603E09F01AC16983FE01E25BFF4F019045
:1052F000F081E02D309761F06D2D6F7720E8629F8F
:10530000B00111248F2D8F77682B70528E2D099547
:10531000E882FA82DB82FFC08EEF810F823008F0D4
:10532000ADC0802F90E0FC01E15FF109EF30F105A5
:1053300008F0F3C0E859FF4F5BC3FE01EC5AFF4F82
:1053400017C0FE01EA5AFF4F0190F081E02D30971F
:1053500009F492C08D2D8F7720E8829FC00111241F
:105360002F2D2F77822B099587C0FE01E85AFF4F1A
:105370000190F081E02D309709F47EC08F2D7BC025
:10538000FE01E65AFF4F0190F081E02D309709F0C1
:1053900067C072C0FE01E45AFF4F0190F081E02D1A
:1053A000309709F05DC0FE01E859FF4F0190F08190
:1053B000E02D309709F460C088EF5DC0FE01E25A2D
:1053C000FF4F0190F081E02D309709F049C0FE01B8
:1053D000E859FF4F0190F081E02D309709F44CC05F
:1053E0008AEF49C0FE01E05AFF4F0190F081E02DA5
:1053F0003097B1F5FE01E859FF4F0190F081E02DA3
:105400003097D1F18BEF37C0FE01EE59FF4F01907D
:10541000F081E02D309721F5FE01E859FF4F019012
:10542000F081E02D309741F18CEF25C0FE01EC5961
:10543000FF4F0190F081E02D309791F4FE01E85983
:10544000FF4F0190F081E02D3097B1F08EEF13C047
:10545000FE01EA59FF4F0190F081E02D309711F0E5
:1054600009950AC0FE01E859FF4F0190F081E02D37
:10547000309711F08FEF099509834ACF143041F42A
:10548000602FCE015DDE6F2DCE015ADE6D2D40C046
:105490008BEF810F833078F5602FCE0151DE153010
:1054A00041F06F2DCE014CDE173019F46D2DCE0179
:1054B00047DEFE01E05CFF4F608171816A837B8380
:1054C0001182108280EF898370960190F081E02D27
:1054D000309729F041E0CE01049609951CC0FE01E9
:1054E000EE5AFF4F0190F081E02D3097A1F0CE01F0
:1054F0000496099510C01F3081F4083F08F011CFC1
:10550000FE01E05CFF4F80819181892B31F0602F9B
:10551000CE0116DE02C081E001C080E0DF91CF91B4
:105520001F910F91FF90EF90DF9008959FB7F8942F
:10553000809174048823C1F082E08093E9003BE607
:105540002091E800822F807225FF0EC08091F1002B
:10555000811103C03093E800F3CF2091E80025FDCE
:1055600003C02BE62093E8009FBF08959C01909113
:105570006F04992311F0892F06C0C901D7DF882352
:1055800021F080936F0490E008958FEF9FEF0895CE
:105590009C0190916F04992321F010926F04892F40
:1055A00004C0C901C3DF882311F090E008958FEF94
:1055B0009FEF089520916F04211105C0B7DF882364
:1055C00029F080936F0481E090E0089580E090E0FE
:1055D0000895E7E6F4E088E0DF011D928A95E9F797
:1055E00088EE93E0A0E0B0E083839483A583B68344
:1055F00085E891E09183808308955058BB27AA27BE
:105600000ED008C1F9D030F0FED020F031F49F3F29
:1056100011F41EF4EEC00EF4E095E7FBE4C0E92FB0
:105620000AD180F3BA17620773078407950718F049
:1056300071F49EF522C10EF4E0950B2EBA2FA02D29
:105640000B01B90190010C01CA01A0011124FF272F
:10565000591B99F0593F50F4503E68F11A16F0402A
:10566000A22F232F342F4427585FF3CF4695379529
:105670002795A795F0405395C9F77EF41F16BA0BEE
:10568000620B730B840BBAF09150A1F0FF0FBB1F9C
:10569000661F771F881FC2F70EC0BA0F621F731FE5
:1056A000841F48F4879577956795B795F7959E3F42
:1056B00008F0B3CF9395880F08F09927EE0F9795D0
:1056C000879508956CD008F481E00895BCD088F0E7
:1056D0009F5790F0B92F9927B751A0F0D1F0660FDE
:1056E000771F881F991F1AF0BA95C9F712C0B130F9
:1056F00081F0C3D0B1E00895C0C0672F782F88270C
:10570000B85F39F0B93FCCF3869577956795B39537
:10571000D9F73EF490958095709561957F4F8F4FA6
:105720009F4F0895E89409C097FB3EF490958095AB
:10573000709561957F4F8F4F9F4F9923A9F0F92F57
:1057400096E9BB279395F695879577956795B795D5
:10575000F111F8CFFAF4BB0F11F460FF1BC06F5FBB
:105760007F4F8F4F9F4F16C0882311F096E911C0CD
:10577000772321F09EE8872F762F05C0662371F0EE
:1057800096E8862F70E060E02AF09A95660F771F02
:10579000881FDAF7880F9695879597F90895990FDE
:1057A0000008550FAA0BE0E8FEEF16161706E807EB
:1057B000F907C0F012161306E407F50798F0621B0C
:1057C000730B840B950B39F40A2661F0232B242BE1
:1057D000252B21F408950A2609F4A140A6958FEF00
:1057E000811D811D089597F99F6780E870E060E052
:1057F00008959FEF80EC089500240A94161617066A
:1058000018060906089500240A94121613061406B1
:1058100005060895092E0394000C11F4882352F014
:10582000BB0F40F4BF2B11F460FF04C06F5F7F4FCC
:105830008F4F9F4F089557FD9058440F551F59F0B3
:105840005F3F71F04795880F97FB991F61F09F3F6D
:1058500079F087950895121613061406551FF2CF96
:105860004695F1DF08C0161617061806991FF1CFE6
:1058700086957105610508940895E894BB2766270D
:105880007727CB0197F908958ADF08F48FEF089501
:105890000BD0C0CFB1DF28F0B6DF18F0952309F0A8
:1058A000A2CFA7CF1124EACFC6DFA0F3959FD1F3F3
:1058B000950F50E0551F629FF001729FBB27F00DBE
:1058C000B11D639FAA27F00DB11DAA1F649F662713
:1058D000B00DA11D661F829F2227B00DA11D621F62
:1058E000739FB00DA11D621F839FA00D611D221F1C
:1058F000749F3327A00D611D231F849F600D211D00
:10590000822F762F6A2F11249F5750408AF0E1F0A2
:1059100088234AF0EE0FFF1FBB1F661F771F881FEB
:1059200091505040A9F79E3F510570F05CCFA6CF33
:105930005F3FECF3983EDCF3869577956795B795D6
:10594000F795E7959F5FC1F7FE2B880F911D969500
:10595000879597F9089523DF880B990B0895AA1B63
:10596000BB1B51E107C0AA1FBB1FA617B70710F04A
:10597000A61BB70B881F991F5A95A9F7809590957C
:10598000BC01CD01089597FB072E16F4009406D0B4
:1059900077FD08D0E4DF07FC05D03EF490958195B3
:1059A0009F4F0895709561957F4F0895A1E21A2E3B
:1059B000AA1BBB1BFD010DC0AA1FBB1FEE1FFF1FB3
:1059C000A217B307E407F50720F0A21BB30BE40B03
:1059D000F50B661F771F881F991F1A9469F760954A
:1059E0007095809590959B01AC01BD01CF01089504
:1059F000EE0FFF1F0590F491E02D0994FB01DC01EF
:105A000002C005900D9241505040D8F70895FC0116
:105A100005900020E9F7809590958E0F9F1F0895BF
:105A2000DC0101C06D9341505040E0F70895F999B1
:105A3000FECF92BD81BDF89A992780B50895262F93
:105A4000F999FECF1FBA92BD81BD20BD0FB6F89463
:105A5000FA9AF99A0FBE0196089516E0C9E9D6E0C0
:105A600003C0FE01C5DF2196CA39D107D1F7F894EA
:025A7000FFCF66
:105A72000147474700545454000000750480000059
:105A8200000000DB10AF108010AE1083108B109F4F
:105A92001000000000781F2421801015131613E94E
:105AA2001ABA1AD91AC11ACD1A081AE91A8B1CD5B0
:105AB20014DE189F185C1BA11BBE1B2B1C000000D0
:105AC20000781F2421801015130024E91ABA1AD96C
:105AD2001AC11ACD1A081AE91A8B1C8A1CEA1A234F
